{
  "contractName": "poChain",
  "abi": [
    {
      "constant": false,
      "inputs": [],
      "name": "renounceOwnership",
      "outputs": [],
      "payable": false,
      "stateMutability": "nonpayable",
      "type": "function"
    },
    {
      "constant": true,
      "inputs": [
        {
          "name": "",
          "type": "uint256"
        }
      ],
      "name": "products",
      "outputs": [
        {
          "name": "_hash",
          "type": "string"
        },
        {
          "name": "_cost",
          "type": "uint256"
        },
        {
          "name": "_state",
          "type": "uint256"
        },
        {
          "name": "_goal",
          "type": "uint256"
        },
        {
          "name": "_deadline",
          "type": "uint256"
        },
        {
          "name": "_deadlinecheck",
          "type": "bool"
        }
      ],
      "payable": false,
      "stateMutability": "view",
      "type": "function"
    },
    {
      "constant": true,
      "inputs": [],
      "name": "owner",
      "outputs": [
        {
          "name": "",
          "type": "address"
        }
      ],
      "payable": false,
      "stateMutability": "view",
      "type": "function"
    },
    {
      "constant": true,
      "inputs": [],
      "name": "isOwner",
      "outputs": [
        {
          "name": "",
          "type": "bool"
        }
      ],
      "payable": false,
      "stateMutability": "view",
      "type": "function"
    },
    {
      "constant": false,
      "inputs": [
        {
          "name": "newOwner",
          "type": "address"
        }
      ],
      "name": "transferOwnership",
      "outputs": [],
      "payable": false,
      "stateMutability": "nonpayable",
      "type": "function"
    },
    {
      "constant": true,
      "inputs": [
        {
          "name": "",
          "type": "uint256"
        }
      ],
      "name": "txs",
      "outputs": [
        {
          "name": "_ProductId",
          "type": "uint256"
        },
        {
          "name": "_amount",
          "type": "uint256"
        },
        {
          "name": "_isPaid",
          "type": "bool"
        }
      ],
      "payable": false,
      "stateMutability": "view",
      "type": "function"
    },
    {
      "inputs": [],
      "payable": false,
      "stateMutability": "nonpayable",
      "type": "constructor"
    },
    {
      "anonymous": false,
      "inputs": [
        {
          "indexed": false,
          "name": "id",
          "type": "uint256"
        },
        {
          "indexed": false,
          "name": "success",
          "type": "bool"
        }
      ],
      "name": "deadlineChecked",
      "type": "event"
    },
    {
      "anonymous": false,
      "inputs": [
        {
          "indexed": false,
          "name": "_productId",
          "type": "uint256"
        },
        {
          "indexed": false,
          "name": "_hash",
          "type": "string"
        },
        {
          "indexed": false,
          "name": "_cost",
          "type": "uint256"
        },
        {
          "indexed": false,
          "name": "_goal",
          "type": "uint256"
        },
        {
          "indexed": false,
          "name": "deadline",
          "type": "uint256"
        },
        {
          "indexed": false,
          "name": "producer",
          "type": "address"
        }
      ],
      "name": "productCreated",
      "type": "event"
    },
    {
      "anonymous": false,
      "inputs": [
        {
          "indexed": false,
          "name": "_oldId",
          "type": "uint256"
        },
        {
          "indexed": false,
          "name": "_productId",
          "type": "uint256"
        },
        {
          "indexed": false,
          "name": "_hash",
          "type": "string"
        },
        {
          "indexed": false,
          "name": "_cost",
          "type": "uint256"
        },
        {
          "indexed": false,
          "name": "_goal",
          "type": "uint256"
        },
        {
          "indexed": false,
          "name": "deadline",
          "type": "uint256"
        },
        {
          "indexed": false,
          "name": "producer",
          "type": "address"
        }
      ],
      "name": "productEdited",
      "type": "event"
    },
    {
      "anonymous": false,
      "inputs": [
        {
          "indexed": false,
          "name": "_productId",
          "type": "uint256"
        }
      ],
      "name": "productDeleted",
      "type": "event"
    },
    {
      "anonymous": false,
      "inputs": [
        {
          "indexed": false,
          "name": "TxId",
          "type": "uint256"
        },
        {
          "indexed": false,
          "name": "_ProductId",
          "type": "uint256"
        },
        {
          "indexed": false,
          "name": "customer",
          "type": "address"
        }
      ],
      "name": "TxCreated",
      "type": "event"
    },
    {
      "anonymous": false,
      "inputs": [
        {
          "indexed": false,
          "name": "TxId",
          "type": "uint256"
        },
        {
          "indexed": false,
          "name": "_ProductId",
          "type": "uint256"
        },
        {
          "indexed": false,
          "name": "customer",
          "type": "address"
        }
      ],
      "name": "TxEditted",
      "type": "event"
    },
    {
      "anonymous": false,
      "inputs": [
        {
          "indexed": true,
          "name": "previousOwner",
          "type": "address"
        },
        {
          "indexed": true,
          "name": "newOwner",
          "type": "address"
        }
      ],
      "name": "OwnershipTransferred",
      "type": "event"
    },
    {
      "constant": false,
      "inputs": [
        {
          "name": "_hash",
          "type": "string"
        },
        {
          "name": "_cost",
          "type": "uint256"
        },
        {
          "name": "_goal",
          "type": "uint256"
        },
        {
          "name": "_deadline",
          "type": "uint256"
        }
      ],
      "name": "createproduct",
      "outputs": [],
      "payable": true,
      "stateMutability": "payable",
      "type": "function"
    },
    {
      "constant": false,
      "inputs": [
        {
          "name": "_oldId",
          "type": "uint256"
        },
        {
          "name": "_hash",
          "type": "string"
        },
        {
          "name": "_cost",
          "type": "uint256"
        },
        {
          "name": "_goal",
          "type": "uint256"
        },
        {
          "name": "_deadline",
          "type": "uint256"
        }
      ],
      "name": "editproduct",
      "outputs": [],
      "payable": true,
      "stateMutability": "payable",
      "type": "function"
    },
    {
      "constant": false,
      "inputs": [
        {
          "name": "Id",
          "type": "uint256"
        }
      ],
      "name": "deleteProduct",
      "outputs": [],
      "payable": false,
      "stateMutability": "nonpayable",
      "type": "function"
    },
    {
      "constant": true,
      "inputs": [
        {
          "name": "Id",
          "type": "uint256"
        }
      ],
      "name": "deadlinePass",
      "outputs": [
        {
          "name": "",
          "type": "bool"
        }
      ],
      "payable": false,
      "stateMutability": "view",
      "type": "function"
    },
    {
      "constant": true,
      "inputs": [
        {
          "name": "Id",
          "type": "uint256"
        }
      ],
      "name": "isDeadlineChecked",
      "outputs": [
        {
          "name": "",
          "type": "bool"
        }
      ],
      "payable": false,
      "stateMutability": "view",
      "type": "function"
    },
    {
      "constant": false,
      "inputs": [
        {
          "name": "Id",
          "type": "uint256"
        }
      ],
      "name": "CheckDeadline",
      "outputs": [],
      "payable": false,
      "stateMutability": "nonpayable",
      "type": "function"
    },
    {
      "constant": false,
      "inputs": [
        {
          "name": "_ProductId",
          "type": "uint256"
        },
        {
          "name": "amount",
          "type": "uint256"
        },
        {
          "name": "hash",
          "type": "string"
        }
      ],
      "name": "CreateTx",
      "outputs": [],
      "payable": true,
      "stateMutability": "payable",
      "type": "function"
    },
    {
      "constant": false,
      "inputs": [
        {
          "name": "Id",
          "type": "uint256"
        },
        {
          "name": "TxId",
          "type": "uint256"
        }
      ],
      "name": "CustomerRCVed",
      "outputs": [],
      "payable": false,
      "stateMutability": "nonpayable",
      "type": "function"
    },
    {
      "constant": false,
      "inputs": [
        {
          "name": "_ProductId",
          "type": "uint256"
        },
        {
          "name": "TxId",
          "type": "uint256"
        },
        {
          "name": "amount",
          "type": "uint256"
        },
        {
          "name": "hash",
          "type": "string"
        }
      ],
      "name": "EditTx",
      "outputs": [],
      "payable": true,
      "stateMutability": "payable",
      "type": "function"
    },
    {
      "constant": true,
      "inputs": [
        {
          "name": "Id",
          "type": "uint256"
        }
      ],
      "name": "getproduct",
      "outputs": [
        {
          "name": "",
          "type": "string"
        },
        {
          "name": "",
          "type": "uint256"
        },
        {
          "name": "",
          "type": "uint256"
        },
        {
          "name": "",
          "type": "uint256"
        },
        {
          "name": "",
          "type": "uint256"
        }
      ],
      "payable": false,
      "stateMutability": "view",
      "type": "function"
    },
    {
      "constant": true,
      "inputs": [],
      "name": "getProductLength",
      "outputs": [
        {
          "name": "",
          "type": "uint256"
        }
      ],
      "payable": false,
      "stateMutability": "view",
      "type": "function"
    },
    {
      "constant": true,
      "inputs": [
        {
          "name": "Id",
          "type": "uint256"
        }
      ],
      "name": "gettx",
      "outputs": [
        {
          "name": "",
          "type": "uint256"
        },
        {
          "name": "",
          "type": "uint256"
        },
        {
          "name": "",
          "type": "bool"
        }
      ],
      "payable": false,
      "stateMutability": "view",
      "type": "function"
    },
    {
      "constant": true,
      "inputs": [],
      "name": "getTxLength",
      "outputs": [
        {
          "name": "",
          "type": "uint256"
        }
      ],
      "payable": false,
      "stateMutability": "view",
      "type": "function"
    },
    {
      "constant": true,
      "inputs": [
        {
          "name": "TxId",
          "type": "uint256"
        }
      ],
      "name": "txalive",
      "outputs": [
        {
          "name": "",
          "type": "bool"
        }
      ],
      "payable": false,
      "stateMutability": "view",
      "type": "function"
    }
  ],
  "bytecode": "0x6080604052600060055534801561001557600080fd5b50336000806101000a81548173ffffffffffffffffffffffffffffffffffffffff021916908373ffffffffffffffffffffffffffffffffffffffff1602179055506000809054906101000a900473ffffffffffffffffffffffffffffffffffffffff1673ffffffffffffffffffffffffffffffffffffffff16600073ffffffffffffffffffffffffffffffffffffffff167f8be0079c531659141344cd1fd0a4f28419497f9722a3daafe3b4186f6b6457e060405160405180910390a3613fe2806100e16000396000f3fe608060405260043610610112576000357c0100000000000000000000000000000000000000000000000000000000900463ffffffff1680631deef430146101175780631efc1c6e146101f057806322e87f64146102435780633d90b892146102965780634e05b9e5146102f7578063715018a6146103325780637acc0b20146103495780638da5cb5b146104245780638f32d59b1461047b57806397043f4d146104aa578063b4a256fb1461058d578063c6e6fbff1461065c578063d25edb7514610687578063e9928df0146106da578063ed90c7b71461071f578063f008ef181461075a578063f2d618191461082a578063f2fde38b14610855578063f5715d56146108a6578063fde997fb14610907575b600080fd5b6101ee6004803603608081101561012d57600080fd5b810190808035906020019064010000000081111561014a57600080fd5b82018360208201111561015c57600080fd5b8035906020019184600183028401116401000000008311171561017e57600080fd5b91908080601f016020809104026020016040519081016040528093929190818152602001838380828437600081840152601f19601f8201169050808301925050505050505091929192908035906020019092919080359060200190929190803590602001909291905050506109e0565b005b3480156101fc57600080fd5b506102296004803603602081101561021357600080fd5b8101908080359060200190929190505050610b3d565b604051808215151515815260200191505060405180910390f35b34801561024f57600080fd5b5061027c6004803603602081101561026657600080fd5b8101908080359060200190929190505050610caf565b604051808215151515815260200191505060405180910390f35b3480156102a257600080fd5b506102cf600480360360208110156102b957600080fd5b8101908080359060200190929190505050610e30565b6040518084815260200183815260200182151515158152602001935050505060405180910390f35b34801561030357600080fd5b506103306004803603602081101561031a57600080fd5b8101908080359060200190929190505050610f9d565b005b34801561033e57600080fd5b5061034761144d565b005b34801561035557600080fd5b506103826004803603602081101561036c57600080fd5b810190808035906020019092919050505061151f565b604051808060200187815260200186815260200185815260200184815260200183151515158152602001828103825288818151815260200191508051906020019080838360005b838110156103e45780820151818401526020810190506103c9565b50505050905090810190601f1680156104115780820380516001836020036101000a031916815260200191505b5097505050505050505060405180910390f35b34801561043057600080fd5b5061043961160f565b604051808273ffffffffffffffffffffffffffffffffffffffff1673ffffffffffffffffffffffffffffffffffffffff16815260200191505060405180910390f35b34801561048757600080fd5b50610490611638565b604051808215151515815260200191505060405180910390f35b61058b600480360360a08110156104c057600080fd5b8101908080359060200190929190803590602001906401000000008111156104e757600080fd5b8201836020820111156104f957600080fd5b8035906020019184600183028401116401000000008311171561051b57600080fd5b91908080601f016020809104026020016040519081016040528093929190818152602001838380828437600081840152601f19601f82011690508083019250505050505050919291929080359060200190929190803590602001909291908035906020019092919050505061168f565b005b61065a600480360360608110156105a357600080fd5b810190808035906020019092919080359060200190929190803590602001906401000000008111156105d457600080fd5b8201836020820111156105e657600080fd5b8035906020019184600183028401116401000000008311171561060857600080fd5b91908080601f016020809104026020016040519081016040528093929190818152602001838380828437600081840152601f19601f820116905080830192505050505050509192919290505050611ce3565b005b34801561066857600080fd5b5061067161213f565b6040518082815260200191505060405180910390f35b34801561069357600080fd5b506106c0600480360360208110156106aa57600080fd5b810190808035906020019092919050505061214c565b604051808215151515815260200191505060405180910390f35b3480156106e657600080fd5b5061071d600480360360408110156106fd57600080fd5b8101908080359060200190929190803590602001909291905050506122c5565b005b34801561072b57600080fd5b506107586004803603602081101561074257600080fd5b8101908080359060200190929190505050612593565b005b34801561076657600080fd5b506107936004803603602081101561077d57600080fd5b8101908080359060200190929190505050612a94565b6040518080602001868152602001858152602001848152602001838152602001828103825287818151815260200191508051906020019080838360005b838110156107eb5780820151818401526020810190506107d0565b50505050905090810190601f1680156108185780820380516001836020036101000a031916815260200191505b50965050505050505060405180910390f35b34801561083657600080fd5b5061083f612b5a565b6040518082815260200191505060405180910390f35b34801561086157600080fd5b506108a46004803603602081101561087857600080fd5b81019080803573ffffffffffffffffffffffffffffffffffffffff169060200190929190505050612b67565b005b3480156108b257600080fd5b506108df600480360360208110156108c957600080fd5b8101908080359060200190929190505050612b86565b6040518084815260200183815260200182151515158152602001935050505060405180910390f35b6109de6004803603608081101561091d57600080fd5b810190808035906020019092919080359060200190929190803590602001909291908035906020019064010000000081111561095857600080fd5b82018360208201111561096a57600080fd5b8035906020019184600183028401116401000000008311171561098c57600080fd5b91908080601f016020809104026020016040519081016040528093929190818152602001838380828437600081840152601f19601f820116905080830192505050505050509192919290505050612bcc565b005b66038d7ea4c68000600260038402010234141515610a8c576040517f08c379a00000000000000000000000000000000000000000000000000000000081526004018080602001828103825260348152602001807f706f436861696e204572726f723a206d7573742072657365727665206578616381526020017f746c79205f676f616c2a332b322066696e6e657900000000000000000000000081525060400191505060405180910390fd5b804211151515610b2a576040517f08c379a00000000000000000000000000000000000000000000000000000000081526004018080602001828103825260238152602001807f706f436861696e204572726f723a20646561646c696e652073657420696e207081526020017f617374000000000000000000000000000000000000000000000000000000000081525060400191505060405180910390fd5b610b378484848433613294565b50505050565b60006003805490508211151515610be2576040517f08c379a00000000000000000000000000000000000000000000000000000000081526004018080602001828103825260238152602001807f706f436861696e204572726f723a2070726f64756374204964206e6f7420666f81526020017f756e64000000000000000000000000000000000000000000000000000000000081525060400191505060405180910390fd5b6000600383815481101515610bf357fe5b906000526020600020906006020160030154111515610c7a576040517f08c379a000000000000000000000000000000000000000000000000000000000815260040180806020018281038252601e8152602001807f706f436861696e204572726f723a2070726f647563742064656c65746564000081525060200191505060405180910390fd5b600382815481101515610c8957fe5b906000526020600020906006020160050160009054906101000a900460ff169050919050565b600060018054905082101515610d2d576040517f08c379a00000000000000000000000000000000000000000000000000000000081526004018080602001828103825260208152602001807f706f436861696e204572726f723a20747820646f6573206e6f7420657869737481525060200191505060405180910390fd5b6002600083815260200190815260200160002060009054906101000a900473ffffffffffffffffffffffffffffffffffffffff1673ffffffffffffffffffffffffffffffffffffffff163373ffffffffffffffffffffffffffffffffffffffff16141515610e03576040517f08c379a000000000000000000000000000000000000000000000000000000000815260040180806020018281038252601f8152602001807f706f436861696e204572726f723a2043616e6e6f74206163636573732074780081525060200191505060405180910390fd5b6000610e0e836134ab565b505090506000610e1d826134fa565b5093505050506000811192505050919050565b600080600060018054905084101515610eb1576040517f08c379a00000000000000000000000000000000000000000000000000000000081526004018080602001828103825260208152602001807f706f436861696e204572726f723a20747820646f6573206e6f7420657869737481525060200191505060405180910390fd5b6002600085815260200190815260200160002060009054906101000a900473ffffffffffffffffffffffffffffffffffffffff1673ffffffffffffffffffffffffffffffffffffffff163373ffffffffffffffffffffffffffffffffffffffff16141515610f87576040517f08c379a000000000000000000000000000000000000000000000000000000000815260040180806020018281038252601f8152602001807f706f436861696e204572726f723a2043616e6e6f74206163636573732074780081525060200191505060405180910390fd5b610f90846134ab565b9250925092509193909250565b6003805490508111151515611040576040517f08c379a00000000000000000000000000000000000000000000000000000000081526004018080602001828103825260238152602001807f706f436861696e204572726f723a2070726f64756374204964206e6f7420666f81526020017f756e64000000000000000000000000000000000000000000000000000000000081525060400191505060405180910390fd5b600060038281548110151561105157fe5b9060005260206000209060060201600301541115156110d8576040517f08c379a000000000000000000000000000000000000000000000000000000000815260040180806020018281038252601e8152602001807f706f436861696e204572726f723a2070726f647563742064656c65746564000081525060200191505060405180910390fd5b600015156003828154811015156110eb57fe5b906000526020600020906006020160050160009054906101000a900460ff161515141515611181576040517f08c379a000000000000000000000000000000000000000000000000000000000815260040180806020018281038252601f8152602001807f706f436861696e204572726f723a20646561646c696e6520636865636b65640081525060200191505060405180910390fd5b60038181548110151561119057fe5b906000526020600020906006020160040154421015151561123f576040517f08c379a00000000000000000000000000000000000000000000000000000000081526004018080602001828103825260268152602001807f706f436861696e204572726f723a20646561646c696e65206973206e6f74207281526020017f656163686564000000000000000000000000000000000000000000000000000081525060400191505060405180910390fd5b3373ffffffffffffffffffffffffffffffffffffffff166108fc66071afd498d00009081150290604051600060405180830381858888f1935050505015801561128c573d6000803e3d6000fd5b50600160038281548110151561129e57fe5b906000526020600020906006020160050160006101000a81548160ff0219169083151502179055506003818154811015156112d557fe5b9060005260206000209060060201600301546003828154811015156112f657fe5b906000526020600020906006020160020154101561136057611317816135eb565b7f45ab7475d7ebb274c832a428bffa5309fa28274cfa5c825009e5819d29f4454681600060405180838152602001821515151581526020019250505060405180910390a161144a565b7f45ab7475d7ebb274c832a428bffa5309fa28274cfa5c825009e5819d29f4454681600160405180838152602001821515151581526020019250505060405180910390a16004600082815260200190815260200160002060009054906101000a900473ffffffffffffffffffffffffffffffffffffffff1673ffffffffffffffffffffffffffffffffffffffff166108fc66038d7ea4c680006003808581548110151561140957fe5b90600052602060002090600602016003015402029081150290604051600060405180830381858888f19350505050158015611448573d6000803e3d6000fd5b505b50565b611455611638565b151561146057600080fd5b600073ffffffffffffffffffffffffffffffffffffffff166000809054906101000a900473ffffffffffffffffffffffffffffffffffffffff1673ffffffffffffffffffffffffffffffffffffffff167f8be0079c531659141344cd1fd0a4f28419497f9722a3daafe3b4186f6b6457e060405160405180910390a360008060006101000a81548173ffffffffffffffffffffffffffffffffffffffff021916908373ffffffffffffffffffffffffffffffffffffffff160217905550565b60038181548110151561152e57fe5b9060005260206000209060060201600091509050806000018054600181600116156101000203166002900480601f0160208091040260200160405190810160405280929190818152602001828054600181600116156101000203166002900480156115da5780601f106115af576101008083540402835291602001916115da565b820191906000526020600020905b8154815290600101906020018083116115bd57829003601f168201915b5050505050908060010154908060020154908060030154908060040154908060050160009054906101000a900460ff16905086565b60008060009054906101000a900473ffffffffffffffffffffffffffffffffffffffff16905090565b60008060009054906101000a900473ffffffffffffffffffffffffffffffffffffffff1673ffffffffffffffffffffffffffffffffffffffff163373ffffffffffffffffffffffffffffffffffffffff1614905090565b6004600086815260200190815260200160002060009054906101000a900473ffffffffffffffffffffffffffffffffffffffff1673ffffffffffffffffffffffffffffffffffffffff163373ffffffffffffffffffffffffffffffffffffffff16141515611765576040517f08c379a000000000000000000000000000000000000000000000000000000000815260040180806020018281038252601c8152602001807f706f436861696e204572726f723a2063616e6e6f74206163636573730000000081525060200191505060405180910390fd5b6000151560038681548110151561177857fe5b906000526020600020906006020160050160009054906101000a900460ff161515141515611834576040517f08c379a00000000000000000000000000000000000000000000000000000000081526004018080602001828103825260368152602001807f706f436861696e204572726f723a2063616e6e6f74206564697420616674657281526020017f206d616e756661637475726520636f6e6669726d65640000000000000000000081525060400191505060405180910390fd5b8042111515156118d2576040517f08c379a00000000000000000000000000000000000000000000000000000000081526004018080602001828103825260238152602001807f706f436861696e204572726f723a20646561646c696e652073657420696e207081526020017f617374000000000000000000000000000000000000000000000000000000000081525060400191505060405180910390fd5b66038d7ea4c6800060026003840201023414151561197e576040517f08c379a00000000000000000000000000000000000000000000000000000000081526004018080602001828103825260358152602001807f706f436861696e204572726f723a2076616c7565206d75737420657175616c2081526020017f77697468205f676f616c2a332b322066696e6e6579000000000000000000000081525060400191505060405180910390fd5b60038054905085101515611a20576040517f08c379a00000000000000000000000000000000000000000000000000000000081526004018080602001828103825260278152602001807f706f436861696e204572726f723a2070726f64756374206f6c64204964206e6f81526020017f7420666f756e640000000000000000000000000000000000000000000000000081525060400191505060405180910390fd5b6000600386815481101515611a3157fe5b906000526020600020906006020160030154111515611ab8576040517f08c379a000000000000000000000000000000000000000000000000000000000815260040180806020018281038252601e8152602001807f706f436861696e204572726f723a2070726f647563742064656c65746564000081525060200191505060405180910390fd5b6060806000611ac688613769565b925092509250600060026003808b815481101515611ae057fe5b9060005260206000209060060201600301540201905060008090505b82811015611c6f57600382101515611bbc578481815181101515611b1c57fe5b9060200190602002015173ffffffffffffffffffffffffffffffffffffffff166108fc66038d7ea4c68000600560038e815481101515611b5857fe5b9060005260206000209060060201600101548886815181101515611b7857fe5b906020019060200201510201029081150290604051600060405180830381858888f19350505050158015611bb0573d6000803e3d6000fd5b50600382039150611c62565b8481815181101515611bca57fe5b9060200190602002015173ffffffffffffffffffffffffffffffffffffffff166108fc66038d7ea4c6800084600260038f815481101515611c0757fe5b9060005260206000209060060201600101548987815181101515611c2757fe5b90602001906020020151020101029081150290604051600060405180830381858888f19350505050158015611c60573d6000803e3d6000fd5b505b8080600101915050611afc565b506000811115611cca573373ffffffffffffffffffffffffffffffffffffffff166108fc66038d7ea4c6800083029081150290604051600060405180830381858888f19350505050158015611cc8573d6000803e3d6000fd5b505b611cd889898989893361392f565b505050505050505050565b60038054905083101515611d5f576040517f08c379a000000000000000000000000000000000000000000000000000000000815260040180806020018281038252601a8152602001807f706f436861696e204572726f723a2050726f6475637420444e4500000000000081525060200191505060405180910390fd5b6000600384815481101515611d7057fe5b906000526020600020906006020160030154111515611df7576040517f08c379a000000000000000000000000000000000000000000000000000000000815260040180806020018281038252601e8152602001807f706f436861696e204572726f723a2044656c657465642050726f64756374000081525060200191505060405180910390fd5b806040516020018082805190602001908083835b602083101515611e305780518252602082019150602081019050602083039250611e0b565b6001836020036101000a03801982511681845116808217855250505050505090500191505060405160208183030381529060405280519060200120600384815481101515611e7a57fe5b90600052602060002090600602016000016040516020018082805460018160011615610100020316600290048015611ee95780601f10611ec7576101008083540402835291820191611ee9565b820191906000526020600020905b815481529060010190602001808311611ed5575b505091505060405160208183030381529060405280519060200120141515611f79576040517f08c379a000000000000000000000000000000000000000000000000000000000815260040180806020018281038252601d8152602001807f706f436861696e204572726f723a20636f72727570746564206461746100000081525060200191505060405180910390fd5b600383815481101515611f8857fe5b90600052602060002090600602016004015442101515612010576040517f08c379a000000000000000000000000000000000000000000000000000000000815260040180806020018281038252601e8152602001807f706f436861696e204572726f723a207072652d6f7264657220656e646564000081525060200191505060405180910390fd5b66038d7ea4c6800060028360038681548110151561202a57fe5b90600052602060002090600602016001015402010234141515612101576040517f08c379a00000000000000000000000000000000000000000000000000000000081526004018080602001828103825260428152602001807f706f436861696e204572726f723a204e6f7420656e6f7567682062616c616e6381526020017f652c2073686f756c64206174206c6561737420636f73742a616d6f756e742b3281526020017f212100000000000000000000000000000000000000000000000000000000000081525060600191505060405180910390fd5b61210c838333613b75565b8160038481548110151561211c57fe5b906000526020600020906006020160020160008282540192505081905550505050565b6000600180549050905090565b600060038054905082111515156121f1576040517f08c379a00000000000000000000000000000000000000000000000000000000081526004018080602001828103825260238152602001807f706f436861696e204572726f723a2070726f64756374204964206e6f7420666f81526020017f756e64000000000000000000000000000000000000000000000000000000000081525060400191505060405180910390fd5b600060038381548110151561220257fe5b906000526020600020906006020160030154111515612289576040517f08c379a000000000000000000000000000000000000000000000000000000000815260040180806020018281038252601e8152602001807f706f436861696e204572726f723a2070726f647563742064656c65746564000081525060200191505060405180910390fd5b4260038381548110151561229957fe5b9060005260206000209060060201600401541115156122bb57600190506122c0565b600090505b919050565b6002600082815260200190815260200160002060009054906101000a900473ffffffffffffffffffffffffffffffffffffffff1673ffffffffffffffffffffffffffffffffffffffff163373ffffffffffffffffffffffffffffffffffffffff1614151561239b576040517f08c379a00000000000000000000000000000000000000000000000000000000081526004018080602001828103825260208152602001807f706f436861696e204572726f723a207065726d697373696f6e2064656e69656481525060200191505060405180910390fd5b600015156001828154811015156123ae57fe5b906000526020600020906003020160020160009054906101000a900460ff161515141515612444576040517f08c379a00000000000000000000000000000000000000000000000000000000081526004018080602001828103825260198152602001807f706f436861696e204572726f723a20747820697320706169640000000000000081525060200191505060405180910390fd5b6001808281548110151561245457fe5b906000526020600020906003020160020160006101000a81548160ff0219169083151502179055506004600083815260200190815260200160002060009054906101000a900473ffffffffffffffffffffffffffffffffffffffff1673ffffffffffffffffffffffffffffffffffffffff166108fc66038d7ea4c680006003858154811015156124e057fe5b90600052602060002090600602016001015460018581548110151561250157fe5b90600052602060002090600302016001015402029081150290604051600060405180830381858888f19350505050158015612540573d6000803e3d6000fd5b503373ffffffffffffffffffffffffffffffffffffffff166108fc66071afd498d00009081150290604051600060405180830381858888f1935050505015801561258e573d6000803e3d6000fd5b505050565b60038054905081101515612635576040517f08c379a00000000000000000000000000000000000000000000000000000000081526004018080602001828103825260238152602001807f706f436861696e204572726f723a2070726f64756374204964206e6f7420666f81526020017f756e64000000000000000000000000000000000000000000000000000000000081525060400191505060405180910390fd5b6004600082815260200190815260200160002060009054906101000a900473ffffffffffffffffffffffffffffffffffffffff1673ffffffffffffffffffffffffffffffffffffffff163373ffffffffffffffffffffffffffffffffffffffff1614151561270b576040517f08c379a000000000000000000000000000000000000000000000000000000000815260040180806020018281038252601c8152602001807f706f436861696e204572726f723a2063616e6e6f74206163636573730000000081525060200191505060405180910390fd5b600060038281548110151561271c57fe5b9060005260206000209060060201600301541115156127a3576040517f08c379a000000000000000000000000000000000000000000000000000000000815260040180806020018281038252601e8152602001807f706f436861696e204572726f723a2070726f647563742064656c65746564000081525060200191505060405180910390fd5b600015156003828154811015156127b657fe5b906000526020600020906006020160050160009054906101000a900460ff161515141515612872576040517f08c379a00000000000000000000000000000000000000000000000000000000081526004018080602001828103825260388152602001807f706f436861696e204572726f723a2063616e6e6f742064656c6574652061667481526020017f6572206d616e756661637475726520636f6e6669726d6564000000000000000081525060400191505060405180910390fd5b606080600061288084613769565b925092509250600060026003808781548110151561289a57fe5b9060005260206000209060060201600301540201905060008090505b82811015612a29576003821015156129765784818151811015156128d657fe5b9060200190602002015173ffffffffffffffffffffffffffffffffffffffff166108fc66038d7ea4c68000600560038a81548110151561291257fe5b906000526020600020906006020160010154888681518110151561293257fe5b906020019060200201510201029081150290604051600060405180830381858888f1935050505015801561296a573d6000803e3d6000fd5b50600382039150612a1c565b848181518110151561298457fe5b9060200190602002015173ffffffffffffffffffffffffffffffffffffffff166108fc66038d7ea4c6800084600260038b8154811015156129c157fe5b90600052602060002090600602016001015489878151811015156129e157fe5b90602001906020020151020101029081150290604051600060405180830381858888f19350505050158015612a1a573d6000803e3d6000fd5b505b80806001019150506128b6565b506000811115612a84573373ffffffffffffffffffffffffffffffffffffffff166108fc66038d7ea4c6800083029081150290604051600060405180830381858888f19350505050158015612a82573d6000803e3d6000fd5b505b612a8d85613cc8565b5050505050565b606060008060008060038054905086101515612b3e576040517f08c379a00000000000000000000000000000000000000000000000000000000081526004018080602001828103825260258152602001807f706f436861696e204572726f723a2070726f6475637420646f6573206e6f742081526020017f657869737400000000000000000000000000000000000000000000000000000081525060400191505060405180910390fd5b612b47866134fa565b9450945094509450945091939590929450565b6000600380549050905090565b612b6f611638565b1515612b7a57600080fd5b612b8381613d28565b50565b600181815481101515612b9557fe5b90600052602060002090600302016000915090508060000154908060010154908060020160009054906101000a900460ff16905083565b60038054905084101515612c6e576040517f08c379a00000000000000000000000000000000000000000000000000000000081526004018080602001828103825260258152602001807f706f436861696e204572726f723a2070726f6475637420646f6573206e6f742081526020017f657869737400000000000000000000000000000000000000000000000000000081525060400191505060405180910390fd5b83600184815481101515612c7e57fe5b906000526020600020906003020160000154141515612d2b576040517f08c379a00000000000000000000000000000000000000000000000000000000081526004018080602001828103825260228152602001807f706f436861696e204572726f723a2070726f64756374206964206d69736d617481526020017f636800000000000000000000000000000000000000000000000000000000000081525060400191505060405180910390fd5b3373ffffffffffffffffffffffffffffffffffffffff166002600085815260200190815260200160002060009054906101000a900473ffffffffffffffffffffffffffffffffffffffff1673ffffffffffffffffffffffffffffffffffffffff16141515612e01576040517f08c379a000000000000000000000000000000000000000000000000000000000815260040180806020018281038252601c8152602001807f706f436861696e204572726f723a20636f6e6e6f74206163636573730000000081525060200191505060405180910390fd5b6000600385815481101515612e1257fe5b906000526020600020906006020160030154111515612e99576040517f08c379a000000000000000000000000000000000000000000000000000000000815260040180806020018281038252601e8152602001807f706f436861696e204572726f723a2064656c657465642070726f64756374000081525060200191505060405180910390fd5b806040516020018082805190602001908083835b602083101515612ed25780518252602082019150602081019050602083039250612ead565b6001836020036101000a03801982511681845116808217855250505050505090500191505060405160208183030381529060405280519060200120600385815481101515612f1c57fe5b90600052602060002090600602016000016040516020018082805460018160011615610100020316600290048015612f8b5780601f10612f69576101008083540402835291820191612f8b565b820191906000526020600020905b815481529060010190602001808311612f77575b50509150506040516020818303038152906040528051906020012014151561301b576040517f08c379a000000000000000000000000000000000000000000000000000000000815260040180806020018281038252601d8152602001807f706f436861696e204572726f723a20636f72727570746564206461746100000081525060200191505060405180910390fd5b60038481548110151561302a57fe5b906000526020600020906006020160040154421015156130b2576040517f08c379a000000000000000000000000000000000000000000000000000000000815260040180806020018281038252601e8152602001807f706f436861696e204572726f723a207072652d6f7264657220656e646564000081525060200191505060405180910390fd5b66038d7ea4c680006002836003878154811015156130cc57fe5b906000526020600020906006020160010154020102341415156131a3576040517f08c379a00000000000000000000000000000000000000000000000000000000081526004018080602001828103825260428152602001807f706f436861696e204572726f723a204e6f7420656e6f7567682062616c616e6381526020017f652c2073686f756c64206174206c6561737420636f73742a616d6f756e742b3281526020017f212100000000000000000000000000000000000000000000000000000000000081525060600191505060405180910390fd5b60006131ae846134ab565b509150506131bc8484613e22565b3373ffffffffffffffffffffffffffffffffffffffff166108fc66038d7ea4c6800060026003898154811015156131ef57fe5b906000526020600020906006020160010154850201029081150290604051600060405180830381858888f19350505050158015613230573d6000803e3d6000fd5b508060038681548110151561324157fe5b9060005260206000209060060201600201600082825403925050819055508260038681548110151561326f57fe5b9060005260206000209060060201600201600082825401925050819055505050505050565b60006001600360c0604051908101604052808981526020018881526020016000815260200187815260200186815260200160001515815250908060018154018082558091505090600182039060005260206000209060060201600090919290919091506000820151816000019080519060200190613313929190613f11565b506020820151816001015560408201518160020155606082015181600301556080820151816004015560a08201518160050160006101000a81548160ff0219169083151502179055505050039050816004600083815260200190815260200160002060006101000a81548173ffffffffffffffffffffffffffffffffffffffff021916908373ffffffffffffffffffffffffffffffffffffffff1602179055507f5ddce98248c321e823dcc1ddd441e876da418c9b523d1cdbb9e9e935647e705381878787878760405180878152602001806020018681526020018581526020018481526020018373ffffffffffffffffffffffffffffffffffffffff1673ffffffffffffffffffffffffffffffffffffffff168152602001828103825287818151815260200191508051906020019080838360005b83811015613464578082015181840152602081019050613449565b50505050905090810190601f1680156134915780820380516001836020036101000a031916815260200191505b5097505050505050505060405180910390a1505050505050565b6000806000806001858154811015156134c057fe5b90600052602060002090600302019050806000015481600101548260020160009054906101000a900460ff16935093509350509193909250565b6060600080600080600060038781548110151561351357fe5b90600052602060002090600602019050806000018160010154826002015483600301548460040154848054600181600116156101000203166002900480601f0160208091040260200160405190810160405280929190818152602001828054600181600116156101000203166002900480156135d05780601f106135a5576101008083540402835291602001916135d0565b820191906000526020600020905b8154815290600101906020018083116135b357829003601f168201915b50505050509450955095509550955095505091939590929450565b60608060006135f984613769565b92509250925060008090505b818110156136bd57838181518110151561361b57fe5b9060200190602002015173ffffffffffffffffffffffffffffffffffffffff166108fc66038d7ea4c68000600260038981548110151561365757fe5b906000526020600020906006020160010154878681518110151561367757fe5b906020019060200201510201029081150290604051600060405180830381858888f193505050501580156136af573d6000803e3d6000fd5b508080600101915050613605565b506004600085815260200190815260200160002060009054906101000a900473ffffffffffffffffffffffffffffffffffffffff1673ffffffffffffffffffffffffffffffffffffffff166108fc66038d7ea4c680006003808881548110151561372357fe5b90600052602060002090600602016003015402029081150290604051600060405180830381858888f19350505050158015613762573d6000803e3d6000fd5b5050505050565b606080600060606001805490506040519080825280602002602001820160405280156137a45781602001602082028038833980820191505090505b50905060606001805490506040519080825280602002602001820160405280156137dd5781602001602082028038833980820191505090505b509050600080905060008090505b60018054905081101561391b578760018281548110151561380857fe5b9060005260206000209060030201600001541480156138475750600060018281548110151561383357fe5b906000526020600020906003020160010154115b1561390e5760018181548110151561385b57fe5b906000526020600020906003020160010154838381518110151561387b57fe5b90602001906020020181815250506002600082815260200190815260200160002060009054906101000a900473ffffffffffffffffffffffffffffffffffffffff1684838151811015156138cb57fe5b9060200190602002019073ffffffffffffffffffffffffffffffffffffffff16908173ffffffffffffffffffffffffffffffffffffffff16815250506001820191505b80806001019150506137eb565b508282829550955095505050509193909250565b600060038781548110151561394057fe5b90600052602060002090600602016003018190555060006001600360c06040519081016040528089815260200188815260200160008152602001878152602001868152602001600015158152509080600181540180825580915050906001820390600052602060002090600602016000909192909190915060008201518160000190805190602001906139d4929190613f11565b506020820151816001015560408201518160020155606082015181600301556080820151816004015560a08201518160050160006101000a81548160ff0219169083151502179055505050039050816004600083815260200190815260200160002060006101000a81548173ffffffffffffffffffffffffffffffffffffffff021916908373ffffffffffffffffffffffffffffffffffffffff1602179055507f2a7aa6d6df3ba5024a896f502e4c7078ae6024911bb737e96aa00dc60920fc808782888888888860405180888152602001878152602001806020018681526020018581526020018481526020018373ffffffffffffffffffffffffffffffffffffffff1673ffffffffffffffffffffffffffffffffffffffff168152602001828103825287818151815260200191508051906020019080838360005b83811015613b2c578082015181840152602081019050613b11565b50505050905090810190601f168015613b595780820380516001836020036101000a031916815260200191505b509850505050505050505060405180910390a150505050505050565b60006001806060604051908101604052808781526020018681526020016000151581525090806001815401808255809150509060018203906000526020600020906003020160009091929091909150600082015181600001556020820151816001015560408201518160020160006101000a81548160ff0219169083151502179055505050039050816002600083815260200190815260200160002060006101000a81548173ffffffffffffffffffffffffffffffffffffffff021916908373ffffffffffffffffffffffffffffffffffffffff1602179055507f9bd01586839227759b1ae3961fb74c90280f99875d71c0b274c01196d29b0585818584604051808481526020018381526020018273ffffffffffffffffffffffffffffffffffffffff1673ffffffffffffffffffffffffffffffffffffffff168152602001935050505060405180910390a150505050565b6000600382815481101515613cd957fe5b9060005260206000209060060201600301819055507fb9cf51de0e349fe22cdf4be36898ccd86f49c14f931aaf57f3c2d617821d1118816040518082815260200191505060405180910390a150565b600073ffffffffffffffffffffffffffffffffffffffff168173ffffffffffffffffffffffffffffffffffffffff1614151515613d6457600080fd5b8073ffffffffffffffffffffffffffffffffffffffff166000809054906101000a900473ffffffffffffffffffffffffffffffffffffffff1673ffffffffffffffffffffffffffffffffffffffff167f8be0079c531659141344cd1fd0a4f28419497f9722a3daafe3b4186f6b6457e060405160405180910390a3806000806101000a81548173ffffffffffffffffffffffffffffffffffffffff021916908373ffffffffffffffffffffffffffffffffffffffff16021790555050565b80600183815481101515613e3257fe5b9060005260206000209060030201600101819055507fcd83c08f2cbb9ca9a66bec5ad542906adaec8afaf65657b417d52f2f852cae2b82600184815481101515613e7857fe5b9060005260206000209060030201600001546002600086815260200190815260200160002060009054906101000a900473ffffffffffffffffffffffffffffffffffffffff16604051808481526020018381526020018273ffffffffffffffffffffffffffffffffffffffff1673ffffffffffffffffffffffffffffffffffffffff168152602001935050505060405180910390a15050565b828054600181600116156101000203166002900490600052602060002090601f016020900481019282601f10613f5257805160ff1916838001178555613f80565b82800160010185558215613f80579182015b82811115613f7f578251825591602001919060010190613f64565b5b509050613f8d9190613f91565b5090565b613fb391905b80821115613faf576000816000905550600101613f97565b5090565b9056fea165627a7a72305820363e66bba80aca4075057c9b9b62acd0d6f33562132903361b2aef2363f4812b0029",
  "source": "pragma solidity >=0.4.21 <0.6.0;\nimport \"./product.sol\";\nimport \"./Transaction.sol\";\n\ncontract poChain is Transaction, product {\n\n    uint randNounce = 0;\n    constructor() public {\n\n    }\n    //Product here\n    /*********************************************************\n    *********************************************************/\n    event deadlineChecked(uint id, bool success); \n\n    function createproduct(string memory _hash, uint _cost, uint _goal, uint _deadline) public payable {\n        require(msg.value == ((_goal*3 + 2) * (1 finney)), \"poChain Error: must reserve exactly _goal*3+2 finney\");\n        // ver_2\n        require(now <= _deadline, \"poChain Error: deadline set in past\");\n        _createproduct(_hash, _cost, _goal, _deadline, msg.sender);\n    }\n\n    function editproduct(uint _oldId, string memory _hash, uint _cost, uint _goal, uint _deadline) public payable {\n        require(msg.sender == Id2Owner[_oldId], \"poChain Error: cannot access\");\n        require(products[_oldId]._deadlinecheck == false, \"poChain Error: cannot edit after manufacture confirmed\");\n        require(now <= _deadline, \"poChain Error: deadline set in past\");\n        require(msg.value == (_goal*3+2)*(1 finney), \"poChain Error: value must equal with _goal*3+2 finney\");\n        require(_oldId < products.length, \"poChain Error: product old Id not found\");\n        require(products[_oldId]._goal > 0, \"poChain Error: product deleted\");\n        (address payable[] memory Found, uint[] memory Amount, uint len) = _GoThoughTxById(_oldId);\n        uint dep = products[_oldId]._goal*3+2;\n        for(uint i = 0; i < len; i++) {\n            // ver_2\n            if (dep >= 3) {\n                Found[i].transfer((Amount[i]*products[_oldId]._cost+5)*(1 finney));\n                dep -= 3;\n            } else {\n                Found[i].transfer((Amount[i]*products[_oldId]._cost+2+dep)*(1 finney));\n            }\n        }\n        if (dep > 0) {\n            msg.sender.transfer(dep*(1 finney));\n        }\n        _editproduct(_oldId, _hash, _cost, _goal, _deadline, msg.sender);\n    }\n\n    function deleteProduct(uint Id) public {\n        require(Id < products.length, \"poChain Error: product Id not found\");\n        require(msg.sender == Id2Owner[Id], \"poChain Error: cannot access\");\n        require(products[Id]._goal > 0, \"poChain Error: product deleted\");\n        require(products[Id]._deadlinecheck == false, \"poChain Error: cannot delete after manufacture confirmed\");\n        (address payable[] memory Found, uint[] memory Amount, uint len) = _GoThoughTxById(Id);\n        uint dep = products[Id]._goal*3+2;\n        for(uint i = 0; i < len; i++) {\n            // ver_2\n            if (dep >= 3) {\n                Found[i].transfer((Amount[i]*products[Id]._cost+5)*(1 finney));\n                dep -= 3;\n            } else {\n                Found[i].transfer((Amount[i]*products[Id]._cost+2+dep)*(1 finney));\n            }\n        }\n        if (dep > 0) {\n            msg.sender.transfer(dep*(1 finney));\n        }\n        _deleteproduct(Id);\n    }\n\n    function deadlinePass(uint Id) public view returns(bool) {\n        require(Id <= products.length, \"poChain Error: product Id not found\");\n        require(products[Id]._goal > 0, \"poChain Error: product deleted\");\n        if(products[Id]._deadline <= now)\n            return true;\n        return false;\n    }\n\n    function isDeadlineChecked(uint Id) public view returns(bool) {\n        require(Id <= products.length, \"poChain Error: product Id not found\");\n        require(products[Id]._goal > 0, \"poChain Error: product deleted\");\n        return products[Id]._deadlinecheck;\n    }\n\n    function CheckDeadline(uint Id) public {\n        require(Id <= products.length, \"poChain Error: product Id not found\");\n        require(products[Id]._goal > 0, \"poChain Error: product deleted\");\n        require(products[Id]._deadlinecheck == false, \"poChain Error: deadline checked\");\n        require(now >= products[Id]._deadline, \"poChain Error: deadline is not reached\");\n        msg.sender.transfer(2*(1 finney));\n        products[Id]._deadlinecheck = true;\n        if(products[Id]._state < products[Id]._goal) {\n            _targetfailed(Id);\n            emit deadlineChecked(Id, false);\n        } else {\n            emit deadlineChecked(Id, true);\n            Id2Owner[Id].transfer((products[Id]._goal*3)*(1 finney));\n        }\n    }\n\n    function _targetfailed(uint Id) private {\n        (address payable[] memory Found, uint[] memory Amount, uint len) = _GoThoughTxById(Id);\n        for(uint i = 0; i < len; i++) {\n            Found[i].transfer((Amount[i]*products[Id]._cost+2)*(1 finney));\n        }\n        Id2Owner[Id].transfer((products[Id]._goal*3)*(1 finney));\n    }\n\n    //Tx here\n    /*********************************************************\n    *********************************************************/\n    function CreateTx(uint _ProductId,uint amount, string memory hash) public payable {\n        require(_ProductId < products.length, \"poChain Error: Product DNE\");\n        require(products[_ProductId]._goal > 0, \"poChain Error: Deleted Product\");\n        require(keccak256(abi.encodePacked(products[_ProductId]._hash)) == keccak256(abi.encodePacked(hash)), \"poChain Error: corrupted data\");\n        require(now < products[_ProductId]._deadline, \"poChain Error: pre-order ended\");\n        require(msg.value == (products[_ProductId]._cost * amount + 2) * (1 finney),\n         \"poChain Error: Not enough balance, should at least cost*amount+2!!\");\n        _createtx(_ProductId, amount, msg.sender);\n        products[_ProductId]._state += amount;\n\n    }\n\n    function CustomerRCVed(uint Id, uint TxId) public {\n        require(msg.sender == Tx2Customer[TxId], \"poChain Error: permission denied\");\n        require(txs[TxId]._isPaid == false, \"poChain Error: tx is paid\");\n        txs[TxId]._isPaid = true;\n        Id2Owner[Id].transfer((txs[TxId]._amount*products[Id]._cost)*(1 finney));\n        msg.sender.transfer(2*(1 finney));\n    }\n\n    function EditTx(uint _ProductId, uint TxId ,uint amount, string memory hash) public payable {\n        require(_ProductId < products.length, \"poChain Error: product does not exist\");\n        require(txs[TxId]._ProductId == _ProductId, \"poChain Error: product id mismatch\");\n        require(Tx2Customer[TxId] == msg.sender, \"poChain Error: connot access\");\n        require(products[_ProductId]._goal > 0, \"poChain Error: deleted product\");\n        require(keccak256(abi.encodePacked(products[_ProductId]._hash)) == keccak256(abi.encodePacked(hash)), \"poChain Error: corrupted data\");\n        require(now < products[_ProductId]._deadline, \"poChain Error: pre-order ended\");\n        require(msg.value == (products[_ProductId]._cost * amount + 2) * (1 finney),\n         \"poChain Error: Not enough balance, should at least cost*amount+2!!\");\n        (,uint oldamount,) = _gettx(TxId);\n        _edittx(TxId, amount);\n        msg.sender.transfer((oldamount*products[_ProductId]._cost + 2)*(1 finney));\n        products[_ProductId]._state -= oldamount;\n        products[_ProductId]._state += amount;\n    }\n\n    function getproduct(uint Id) public view returns(string memory, uint, uint, uint, uint) {\n        require(Id  < products.length, \"poChain Error: product does not exist\");\n        return(_getproduct(Id));\n        // return hash, cost, state, goal, deadline\n    }\n\n    function getProductLength() public view returns(uint) {\n        return products.length;\n    }\n\n    function gettx(uint Id) public view returns(uint, uint, bool) {\n        require(Id < txs.length, \"poChain Error: tx does not exist\");\n        require(msg.sender == Tx2Customer[Id], \"poChain Error: Cannot access tx\");\n        return _gettx(Id);\n        // return productid, amount, ispaid\n    }\n\n    function getTxLength() public view returns(uint) {\n        return txs.length;\n    }\n\n    function txalive(uint TxId) public view returns(bool) {\n        require(TxId < txs.length, \"poChain Error: tx does not exist\");\n        require(msg.sender == Tx2Customer[TxId], \"poChain Error: Cannot access tx\");\n        (uint productId,,) = _gettx(TxId);\n        (,,, uint goal,) = _getproduct(productId);\n        return (goal > 0);\n    }\n}\n",
  "sourcePath": "/Users/karl/Desktop/pochain/contracts/poChain.sol",
  "compiler": {
    "name": "solc",
    "version": "0.5.0+commit.1d4f565a.Emscripten.clang"
  },
  "schemaVersion": "3.0.9",
  "updatedAt": "2019-06-26T18:28:20.593Z",
  "devdoc": {
    "methods": {
      "isOwner()": {
        "return": "true if `msg.sender` is the owner of the contract."
      },
      "owner()": {
        "return": "the address of the owner."
      },
      "renounceOwnership()": {
        "details": "Allows the current owner to relinquish control of the contract."
      },
      "transferOwnership(address)": {
        "details": "Allows the current owner to transfer control of the contract to a newOwner.",
        "params": {
          "newOwner": "The address to transfer ownership to."
        }
      }
    }
  },
  "userdoc": {
    "methods": {
      "CreateTx(uint256,uint256,string)": {
        "notice": "***************************************************************************************************************"
      },
      "renounceOwnership()": {
        "notice": "Renouncing to ownership will leave the contract without an owner. It will not be possible to call the functions with the `onlyOwner` modifier anymore."
      }
    }
  }
}