{
  "contractName": "poChain",
  "abi": [
    {
      "constant": true,
      "inputs": [
        {
          "name": "",
          "type": "uint256"
        }
      ],
      "name": "products",
      "outputs": [
        {
          "name": "_hash",
          "type": "string"
        },
        {
          "name": "_cost",
          "type": "uint256"
        },
        {
          "name": "_state",
          "type": "uint256"
        }
      ],
      "payable": false,
      "stateMutability": "view",
      "type": "function"
    },
    {
      "constant": true,
      "inputs": [
        {
          "name": "",
          "type": "uint256"
        }
      ],
      "name": "txs",
      "outputs": [
        {
          "name": "_ProductId",
          "type": "uint256"
        }
      ],
      "payable": false,
      "stateMutability": "view",
      "type": "function"
    },
    {
      "inputs": [],
      "payable": false,
      "stateMutability": "nonpayable",
      "type": "constructor"
    }
  ],
  "bytecode": "0x6080604052600060045534801561001557600080fd5b50610288806100256000396000f3fe60806040526004361061004c576000357c0100000000000000000000000000000000000000000000000000000000900463ffffffff1680637acc0b2014610051578063f5715d5614610113575b600080fd5b34801561005d57600080fd5b5061008a6004803603602081101561007457600080fd5b8101908080359060200190929190505050610162565b6040518080602001848152602001838152602001828103825285818151815260200191508051906020019080838360005b838110156100d65780820151818401526020810190506100bb565b50505050905090810190601f1680156101035780820380516001836020036101000a031916815260200191505b5094505050505060405180910390f35b34801561011f57600080fd5b5061014c6004803603602081101561013657600080fd5b8101908080359060200190929190505050610233565b6040518082815260200191505060405180910390f35b60028181548110151561017157fe5b9060005260206000209060030201600091509050806000018054600181600116156101000203166002900480601f01602080910402602001604051908101604052809291908181526020018280546001816001161561010002031660029004801561021d5780601f106101f25761010080835404028352916020019161021d565b820191906000526020600020905b81548152906001019060200180831161020057829003601f168201915b5050505050908060010154908060020154905083565b60038181548110151561024257fe5b90600052602060002001600091509050806000015490508156fea165627a7a7230582096c1d76ade976bc5d166112ce5e22ac566e42743d436d90e660203d46eadf7b70029",
  "source": "pragma solidity >=0.4.21 <0.6.0;\n//import \"./ownable.sol\";\n\ncontract poChain {\n    mapping (uint => address) Id2Owner;\n    mapping (uint => address) Tx2Customer;\n    struct Product {\n        string _hash;\n        uint _cost;\n        // initial state = target pre-order\n        // _state-- if sb pre-order\n        // _state == 0, goal make\n        uint _state;\n    }\n\n\n    struct Tx {\n        uint _ProductId;\n    }\n\n    Product[] public products;\n    Tx[] public txs;\n\n\n    uint randNounce = 0;\n    constructor() public {\n\n    }\n \n\n}\n",
  "sourcePath": "/Users/karl/Desktop/pochain/contracts/poChain.sol",
  "compiler": {
    "name": "solc",
    "version": "0.5.0+commit.1d4f565a.Emscripten.clang"
  },
  "schemaVersion": "3.0.9",
  "updatedAt": "2019-05-28T10:14:29.242Z",
  "devdoc": {
    "methods": {}
  },
  "userdoc": {
    "methods": {}
  }
}