{
  "contractName": "poChain",
  "abi": [
    {
      "constant": false,
      "inputs": [],
      "name": "renounceOwnership",
      "outputs": [],
      "payable": false,
      "stateMutability": "nonpayable",
      "type": "function"
    },
    {
      "constant": true,
      "inputs": [
        {
          "name": "",
          "type": "uint256"
        }
      ],
      "name": "products",
      "outputs": [
        {
          "name": "_hash",
          "type": "string"
        },
        {
          "name": "_cost",
          "type": "uint256"
        },
        {
          "name": "_state",
          "type": "uint256"
        },
        {
          "name": "_goal",
          "type": "uint256"
        },
        {
          "name": "deadline",
          "type": "uint256"
        }
      ],
      "payable": false,
      "stateMutability": "view",
      "type": "function"
    },
    {
      "constant": true,
      "inputs": [],
      "name": "owner",
      "outputs": [
        {
          "name": "",
          "type": "address"
        }
      ],
      "payable": false,
      "stateMutability": "view",
      "type": "function"
    },
    {
      "constant": true,
      "inputs": [],
      "name": "isOwner",
      "outputs": [
        {
          "name": "",
          "type": "bool"
        }
      ],
      "payable": false,
      "stateMutability": "view",
      "type": "function"
    },
    {
      "constant": false,
      "inputs": [
        {
          "name": "newOwner",
          "type": "address"
        }
      ],
      "name": "transferOwnership",
      "outputs": [],
      "payable": false,
      "stateMutability": "nonpayable",
      "type": "function"
    },
    {
      "constant": true,
      "inputs": [
        {
          "name": "",
          "type": "uint256"
        }
      ],
      "name": "txs",
      "outputs": [
        {
          "name": "_ProductId",
          "type": "uint256"
        },
        {
          "name": "amount",
          "type": "uint256"
        }
      ],
      "payable": false,
      "stateMutability": "view",
      "type": "function"
    },
    {
      "inputs": [],
      "payable": false,
      "stateMutability": "nonpayable",
      "type": "constructor"
    },
    {
      "anonymous": false,
      "inputs": [
        {
          "indexed": false,
          "name": "_productId",
          "type": "uint256"
        },
        {
          "indexed": false,
          "name": "_hash",
          "type": "string"
        },
        {
          "indexed": false,
          "name": "_cost",
          "type": "uint256"
        },
        {
          "indexed": false,
          "name": "_goal",
          "type": "uint256"
        },
        {
          "indexed": false,
          "name": "deadline",
          "type": "uint256"
        }
      ],
      "name": "productCreated",
      "type": "event"
    },
    {
      "anonymous": false,
      "inputs": [
        {
          "indexed": false,
          "name": "_productId",
          "type": "uint256"
        },
        {
          "indexed": false,
          "name": "_hash",
          "type": "string"
        },
        {
          "indexed": false,
          "name": "_cost",
          "type": "uint256"
        },
        {
          "indexed": false,
          "name": "_goal",
          "type": "uint256"
        },
        {
          "indexed": false,
          "name": "deadline",
          "type": "uint256"
        }
      ],
      "name": "productEdited",
      "type": "event"
    },
    {
      "anonymous": false,
      "inputs": [
        {
          "indexed": false,
          "name": "TxId",
          "type": "uint256"
        },
        {
          "indexed": false,
          "name": "_ProductId",
          "type": "uint256"
        },
        {
          "indexed": false,
          "name": "amount",
          "type": "uint256"
        }
      ],
      "name": "TxCreated",
      "type": "event"
    },
    {
      "anonymous": false,
      "inputs": [
        {
          "indexed": true,
          "name": "previousOwner",
          "type": "address"
        },
        {
          "indexed": true,
          "name": "newOwner",
          "type": "address"
        }
      ],
      "name": "OwnershipTransferred",
      "type": "event"
    },
    {
      "constant": false,
      "inputs": [
        {
          "name": "_hash",
          "type": "string"
        },
        {
          "name": "_cost",
          "type": "uint256"
        },
        {
          "name": "_goal",
          "type": "uint256"
        },
        {
          "name": "_deadline",
          "type": "uint256"
        }
      ],
      "name": "createproduct",
      "outputs": [],
      "payable": true,
      "stateMutability": "payable",
      "type": "function"
    },
    {
      "constant": false,
      "inputs": [
        {
          "name": "Id",
          "type": "uint256"
        },
        {
          "name": "_hash",
          "type": "string"
        },
        {
          "name": "_cost",
          "type": "uint256"
        },
        {
          "name": "_goal",
          "type": "uint256"
        },
        {
          "name": "_deadline",
          "type": "uint256"
        }
      ],
      "name": "editproduct",
      "outputs": [],
      "payable": true,
      "stateMutability": "payable",
      "type": "function"
    },
    {
      "constant": true,
      "inputs": [
        {
          "name": "Id",
          "type": "uint256"
        },
        {
          "name": "deadline",
          "type": "uint256"
        }
      ],
      "name": "DLC",
      "outputs": [
        {
          "name": "",
          "type": "bool"
        }
      ],
      "payable": false,
      "stateMutability": "view",
      "type": "function"
    },
    {
      "constant": false,
      "inputs": [
        {
          "name": "Id",
          "type": "uint256"
        }
      ],
      "name": "CheckDeadline",
      "outputs": [],
      "payable": false,
      "stateMutability": "nonpayable",
      "type": "function"
    },
    {
      "constant": false,
      "inputs": [
        {
          "name": "Id",
          "type": "uint256"
        },
        {
          "name": "TxId",
          "type": "uint256"
        }
      ],
      "name": "CustomerRCVed",
      "outputs": [],
      "payable": false,
      "stateMutability": "nonpayable",
      "type": "function"
    },
    {
      "constant": false,
      "inputs": [
        {
          "name": "_ProductId",
          "type": "uint256"
        },
        {
          "name": "amount",
          "type": "uint256"
        },
        {
          "name": "hash",
          "type": "string"
        }
      ],
      "name": "CreateTx",
      "outputs": [],
      "payable": true,
      "stateMutability": "payable",
      "type": "function"
    },
    {
      "constant": false,
      "inputs": [
        {
          "name": "TxId",
          "type": "uint256"
        },
        {
          "name": "_ProductId",
          "type": "uint256"
        },
        {
          "name": "amount",
          "type": "uint256"
        },
        {
          "name": "hash",
          "type": "string"
        }
      ],
      "name": "EditTx",
      "outputs": [],
      "payable": true,
      "stateMutability": "payable",
      "type": "function"
    },
    {
      "constant": true,
      "inputs": [
        {
          "name": "Id",
          "type": "uint256"
        }
      ],
      "name": "getproduct",
      "outputs": [
        {
          "name": "",
          "type": "string"
        },
        {
          "name": "",
          "type": "uint256"
        },
        {
          "name": "",
          "type": "uint256"
        },
        {
          "name": "",
          "type": "uint256"
        },
        {
          "name": "",
          "type": "uint256"
        }
      ],
      "payable": false,
      "stateMutability": "view",
      "type": "function"
    },
    {
      "constant": true,
      "inputs": [
        {
          "name": "Id",
          "type": "uint256"
        }
      ],
      "name": "gettx",
      "outputs": [
        {
          "name": "",
          "type": "uint256"
        },
        {
          "name": "",
          "type": "uint256"
        }
      ],
      "payable": false,
      "stateMutability": "view",
      "type": "function"
    }
  ],
  "bytecode": "0x6080604052600060055534801561001557600080fd5b50336000806101000a81548173ffffffffffffffffffffffffffffffffffffffff021916908373ffffffffffffffffffffffffffffffffffffffff1602179055506000809054906101000a900473ffffffffffffffffffffffffffffffffffffffff1673ffffffffffffffffffffffffffffffffffffffff16600073ffffffffffffffffffffffffffffffffffffffff167f8be0079c531659141344cd1fd0a4f28419497f9722a3daafe3b4186f6b6457e060405160405180910390a3612859806100e16000396000f3fe6080604052600436106100db576000357c0100000000000000000000000000000000000000000000000000000000900463ffffffff1680631deef430146100e057806336607d95146101b95780633d90b892146102165780634e05b9e51461026c578063715018a6146102a75780637acc0b20146102be5780638da5cb5b1461038e5780638f32d59b146103e557806397043f4d14610414578063b4a256fb146104f7578063e9928df0146105c6578063f008ef181461060b578063f2fde38b146106db578063f5715d561461072c578063fde997fb14610782575b600080fd5b6101b7600480360360808110156100f657600080fd5b810190808035906020019064010000000081111561011357600080fd5b82018360208201111561012557600080fd5b8035906020019184600183028401116401000000008311171561014757600080fd5b91908080601f016020809104026020016040519081016040528093929190818152602001838380828437600081840152601f19601f82011690508083019250505050505050919291929080359060200190929190803590602001909291908035906020019092919050505061085b565b005b3480156101c557600080fd5b506101fc600480360360408110156101dc57600080fd5b8101908080359060200190929190803590602001909291905050506108ed565b604051808215151515815260200191505060405180910390f35b34801561022257600080fd5b5061024f6004803603602081101561023957600080fd5b8101908080359060200190929190505050610a40565b604051808381526020018281526020019250505060405180910390f35b34801561027857600080fd5b506102a56004803603602081101561028f57600080fd5b8101908080359060200190929190505050610ad4565b005b3480156102b357600080fd5b506102bc610cb6565b005b3480156102ca57600080fd5b506102f7600480360360208110156102e157600080fd5b8101908080359060200190929190505050610d88565b6040518080602001868152602001858152602001848152602001838152602001828103825287818151815260200191508051906020019080838360005b8381101561034f578082015181840152602081019050610334565b50505050905090810190601f16801561037c5780820380516001836020036101000a031916815260200191505b50965050505050505060405180910390f35b34801561039a57600080fd5b506103a3610e65565b604051808273ffffffffffffffffffffffffffffffffffffffff1673ffffffffffffffffffffffffffffffffffffffff16815260200191505060405180910390f35b3480156103f157600080fd5b506103fa610e8e565b604051808215151515815260200191505060405180910390f35b6104f5600480360360a081101561042a57600080fd5b81019080803590602001909291908035906020019064010000000081111561045157600080fd5b82018360208201111561046357600080fd5b8035906020019184600183028401116401000000008311171561048557600080fd5b91908080601f016020809104026020016040519081016040528093929190818152602001838380828437600081840152601f19601f820116905080830192505050505050509192919290803590602001909291908035906020019092919080359060200190929190505050610ee5565b005b6105c46004803603606081101561050d57600080fd5b8101908080359060200190929190803590602001909291908035906020019064010000000081111561053e57600080fd5b82018360208201111561055057600080fd5b8035906020019184600183028401116401000000008311171561057257600080fd5b91908080601f016020809104026020016040519081016040528093929190818152602001838380828437600081840152601f19601f820116905080830192505050505050509192919290505050611218565b005b3480156105d257600080fd5b50610609600480360360408110156105e957600080fd5b810190808035906020019092919080359060200190929190505050611621565b005b34801561061757600080fd5b506106446004803603602081101561062e57600080fd5b81019080803590602001909291905050506116ea565b6040518080602001868152602001858152602001848152602001838152602001828103825287818151815260200191508051906020019080838360005b8381101561069c578082015181840152602081019050610681565b50505050905090810190601f1680156106c95780820380516001836020036101000a031916815260200191505b50965050505050505060405180910390f35b3480156106e757600080fd5b5061072a600480360360208110156106fe57600080fd5b81019080803573ffffffffffffffffffffffffffffffffffffffff16906020019092919050505061178e565b005b34801561073857600080fd5b506107656004803603602081101561074f57600080fd5b81019080803590602001909291905050506117ad565b604051808381526020018281526020019250505060405180910390f35b6108596004803603608081101561079857600080fd5b81019080803590602001909291908035906020019092919080359060200190929190803590602001906401000000008111156107d357600080fd5b8201836020820111156107e557600080fd5b8035906020019184600183028401116401000000008311171561080757600080fd5b91908080601f016020809104026020016040519081016040528093929190818152602001838380828437600081840152601f19601f8201169050808301925050505050505091929192905050506117e0565b005b66071afd498d00008201341415156108db576040517f08c379a000000000000000000000000000000000000000000000000000000000815260040180806020018281038252601f8152602001807f6d75737420726573657276652065786163746c79205f7374617465207765690081525060200191505060405180910390fd5b6108e784848484611e06565b50505050565b6000600380549050831115151561096c576040517f08c379a00000000000000000000000000000000000000000000000000000000081526004018080602001828103825260148152602001807f70726f64756374204964206e6f7420666f756e6400000000000000000000000081525060200191505060405180910390fd5b600060038481548110151561097d57fe5b906000526020600020906005020160020154111515610a04576040517f08c379a000000000000000000000000000000000000000000000000000000000815260040180806020018281038252600f8152602001807f70726f647563742064656c65746564000000000000000000000000000000000081525060200191505060405180910390fd5b81600384815481101515610a1457fe5b9060005260206000209060050201600401541415610a355760019050610a3a565b600090505b92915050565b60008060018080549050038310151515610ac2576040517f08c379a000000000000000000000000000000000000000000000000000000000815260040180806020018281038252600b8152602001807f50726f6475637420444e4500000000000000000000000000000000000000000081525060200191505060405180910390fd5b610acb83611fbf565b91509150915091565b6003805490508111151515610b51576040517f08c379a00000000000000000000000000000000000000000000000000000000081526004018080602001828103825260148152602001807f70726f64756374204964206e6f7420666f756e6400000000000000000000000081525060200191505060405180910390fd5b6000600382815481101515610b6257fe5b906000526020600020906005020160020154111515610be9576040517f08c379a000000000000000000000000000000000000000000000000000000000815260040180806020018281038252600f8152602001807f70726f647563742064656c65746564000000000000000000000000000000000081525060200191505060405180910390fd5b600381815481101515610bf857fe5b90600052602060002090600502016004015442101515610cb3573373ffffffffffffffffffffffffffffffffffffffff166108fc66071afd498d00009081150290604051600060405180830381858888f19350505050158015610c5f573d6000803e3d6000fd5b50600381815481101515610c6f57fe5b906000526020600020906005020160030154600382815481101515610c9057fe5b9060005260206000209060050201600201541015610cb257610cb181611ff7565b5b5b50565b610cbe610e8e565b1515610cc957600080fd5b600073ffffffffffffffffffffffffffffffffffffffff166000809054906101000a900473ffffffffffffffffffffffffffffffffffffffff1673ffffffffffffffffffffffffffffffffffffffff167f8be0079c531659141344cd1fd0a4f28419497f9722a3daafe3b4186f6b6457e060405160405180910390a360008060006101000a81548173ffffffffffffffffffffffffffffffffffffffff021916908373ffffffffffffffffffffffffffffffffffffffff160217905550565b600381815481101515610d9757fe5b9060005260206000209060050201600091509050806000018054600181600116156101000203166002900480601f016020809104026020016040519081016040528092919081815260200182805460018160011615610100020316600290048015610e435780601f10610e1857610100808354040283529160200191610e43565b820191906000526020600020905b815481529060010190602001808311610e2657829003601f168201915b5050505050908060010154908060020154908060030154908060040154905085565b60008060009054906101000a900473ffffffffffffffffffffffffffffffffffffffff16905090565b60008060009054906101000a900473ffffffffffffffffffffffffffffffffffffffff1673ffffffffffffffffffffffffffffffffffffffff163373ffffffffffffffffffffffffffffffffffffffff1614905090565b6004600086815260200190815260200160002060009054906101000a900473ffffffffffffffffffffffffffffffffffffffff1673ffffffffffffffffffffffffffffffffffffffff163373ffffffffffffffffffffffffffffffffffffffff16141515610fbb576040517f08c379a000000000000000000000000000000000000000000000000000000000815260040180806020018281038252600b8152602001807f43414e542041434345535300000000000000000000000000000000000000000081525060200191505060405180910390fd5b66038d7ea4c6800060028301023414151561103e576040517f08c379a000000000000000000000000000000000000000000000000000000000815260040180806020018281038252601d8152602001807f76616c7565206d75737420657175616c2077697468205f676f616c2b3200000081525060200191505060405180910390fd5b60038054905085111515156110bb576040517f08c379a00000000000000000000000000000000000000000000000000000000081526004018080602001828103825260148152602001807f70726f64756374204964206e6f7420666f756e6400000000000000000000000081525060200191505060405180910390fd5b60006003868154811015156110cc57fe5b906000526020600020906005020160020154111515611153576040517f08c379a000000000000000000000000000000000000000000000000000000000815260040180806020018281038252600f8152602001807f70726f647563742064656c65746564000000000000000000000000000000000081525060200191505060405180910390fd5b61116085858585856120d0565b606080600061116e8861225d565b92509250925060008090505b8181101561120d57838181518110151561119057fe5b9060200190602002015173ffffffffffffffffffffffffffffffffffffffff166108fc66038d7ea4c6800085848151811015156111c957fe5b90602001906020020151029081150290604051600060405180830381858888f193505050501580156111ff573d6000803e3d6000fd5b50808060010191505061117a565b505050505050505050565b6001600380549050038310151515611298576040517f08c379a000000000000000000000000000000000000000000000000000000000815260040180806020018281038252600b8152602001807f50726f6475637420444e4500000000000000000000000000000000000000000081525060200191505060405180910390fd5b60016003848154811015156112a957fe5b90600052602060002090600502016002015410151515611331576040517f08c379a000000000000000000000000000000000000000000000000000000000815260040180806020018281038252600f8152602001807f44656c657465642050726f64756374000000000000000000000000000000000081525060200191505060405180910390fd5b806040516020018082805190602001908083835b60208310151561136a5780518252602082019150602081019050602083039250611345565b6001836020036101000a038019825116818451168082178552505050505050905001915050604051602081830303815290604052805190602001206003848154811015156113b457fe5b906000526020600020906005020160000160405160200180828054600181600116156101000203166002900480156114235780601f10611401576101008083540402835291820191611423565b820191906000526020600020905b81548152906001019060200180831161140f575b5050915050604051602081830303815290604052805190602001201415156114b3576040517f08c379a000000000000000000000000000000000000000000000000000000000815260040180806020018281038252600e8152602001807f636f72727570746564206461746100000000000000000000000000000000000081525060200191505060405180910390fd5b6003838154811015156114c257fe5b906000526020600020906005020160040154421115151561154b576040517f08c379a000000000000000000000000000000000000000000000000000000000815260040180806020018281038252600f8152602001807f7072652d6f7264657220656e646564000000000000000000000000000000000081525060200191505060405180910390fd5b8160038481548110151561155b57fe5b90600052602060002090600502016001015402341415156115e4576040517f08c379a00000000000000000000000000000000000000000000000000000000081526004018080602001828103825260148152602001807f4e6f7420656e6f7567682062616c616e6365212100000000000000000000000081525060200191505060405180910390fd5b6115ee83836123f8565b816003848154811015156115fe57fe5b906000526020600020906005020160020160008282540192505081905550505050565b6004600083815260200190815260200160002060009054906101000a900473ffffffffffffffffffffffffffffffffffffffff1673ffffffffffffffffffffffffffffffffffffffff166108fc66038d7ea4c6800060038581548110151561168557fe5b9060005260206000209060050201600101546001858154811015156116a657fe5b90600052602060002090600202016001015402029081150290604051600060405180830381858888f193505050501580156116e5573d6000803e3d6000fd5b505050565b60606000806000806001600380549050038610151515611772576040517f08c379a000000000000000000000000000000000000000000000000000000000815260040180806020018281038252600b8152602001807f50726f6475637420444e4500000000000000000000000000000000000000000081525060200191505060405180910390fd5b61177b866124f4565b9450945094509450945091939590929450565b611796610e8e565b15156117a157600080fd5b6117aa816125e5565b50565b6001818154811015156117bc57fe5b90600052602060002090600202016000915090508060000154908060010154905082565b6001600380549050038310151515611860576040517f08c379a000000000000000000000000000000000000000000000000000000000815260040180806020018281038252600b8152602001807f50726f6475637420444e4500000000000000000000000000000000000000000081525060200191505060405180910390fd5b8260018581548110151561187057fe5b9060005260206000209060020201600001541415156118f7576040517f08c379a00000000000000000000000000000000000000000000000000000000081526004018080602001828103825260108152602001807f4e4f5420544841542050524f445543540000000000000000000000000000000081525060200191505060405180910390fd5b3373ffffffffffffffffffffffffffffffffffffffff166002600086815260200190815260200160002060009054906101000a900473ffffffffffffffffffffffffffffffffffffffff1673ffffffffffffffffffffffffffffffffffffffff161415156119cd576040517f08c379a000000000000000000000000000000000000000000000000000000000815260040180806020018281038252600b8152602001807f43414e542041434345535300000000000000000000000000000000000000000081525060200191505060405180910390fd5b60016003848154811015156119de57fe5b90600052602060002090600502016002015410151515611a66576040517f08c379a000000000000000000000000000000000000000000000000000000000815260040180806020018281038252600f8152602001807f44656c657465642050726f64756374000000000000000000000000000000000081525060200191505060405180910390fd5b806040516020018082805190602001908083835b602083101515611a9f5780518252602082019150602081019050602083039250611a7a565b6001836020036101000a03801982511681845116808217855250505050505090500191505060405160208183030381529060405280519060200120600384815481101515611ae957fe5b90600052602060002090600502016000016040516020018082805460018160011615610100020316600290048015611b585780601f10611b36576101008083540402835291820191611b58565b820191906000526020600020905b815481529060010190602001808311611b44575b505091505060405160208183030381529060405280519060200120141515611be8576040517f08c379a000000000000000000000000000000000000000000000000000000000815260040180806020018281038252600e8152602001807f636f72727570746564206461746100000000000000000000000000000000000081525060200191505060405180910390fd5b600383815481101515611bf757fe5b9060005260206000209060050201600401544211151515611c80576040517f08c379a000000000000000000000000000000000000000000000000000000000815260040180806020018281038252600f8152602001807f7072652d6f7264657220656e646564000000000000000000000000000000000081525060200191505060405180910390fd5b81600384815481101515611c9057fe5b9060005260206000209060050201600101540234141515611d19576040517f08c379a00000000000000000000000000000000000000000000000000000000081526004018080602001828103825260148152602001807f4e6f7420656e6f7567682062616c616e6365212100000000000000000000000081525060200191505060405180910390fd5b6000611d2485611fbf565b915050611d3185846126df565b3373ffffffffffffffffffffffffffffffffffffffff166108fc66038d7ea4c68000600387815481101515611d6257fe5b9060005260206000209060050201600101548402029081150290604051600060405180830381858888f19350505050158015611da2573d6000803e3d6000fd5b5080600385815481101515611db357fe5b90600052602060002090600502016002016000828254039250508190555082600385815481101515611de157fe5b9060005260206000209060050201600201600082825401925050819055505050505050565b60006001600360a0604051908101604052808881526020018781526020016001815260200186815260200185815250908060018154018082558091505090600182039060005260206000209060050201600090919290919091506000820151816000019080519060200190611e7c929190612708565b50602082015181600101556040820151816002015560608201518160030155608082015181600401555050039050336004600083815260200190815260200160002060006101000a81548173ffffffffffffffffffffffffffffffffffffffff021916908373ffffffffffffffffffffffffffffffffffffffff1602179055507f46ded7b977390d6268290d4023c6503bca74dda84be4aa7eb28e922a42107fc881868686866040518086815260200180602001858152602001848152602001838152602001828103825286818151815260200191508051906020019080838360005b83811015611f7a578082015181840152602081019050611f5f565b50505050905090810190601f168015611fa75780820380516001836020036101000a031916815260200191505b50965050505050505060405180910390a15050505050565b6000806000600184815481101515611fd357fe5b90600052602060002090600202019050806000015481600101549250925050915091565b60608060006120058461225d565b92509250925060008090505b818110156120c957838181518110151561202757fe5b9060200190602002015173ffffffffffffffffffffffffffffffffffffffff166108fc66038d7ea4c68000600160038981548110151561206357fe5b906000526020600020906005020160010154878681518110151561208357fe5b906020019060200201510201029081150290604051600060405180830381858888f193505050501580156120bb573d6000803e3d6000fd5b508080600101915050612011565b5050505050565b836003868154811015156120e057fe5b90600052602060002090600502016000019080519060200190612104929190612788565b508260038681548110151561211557fe5b906000526020600020906005020160010181905550600160038681548110151561213b57fe5b9060005260206000209060050201600201819055508160038681548110151561216057fe5b9060005260206000209060050201600301819055508060038681548110151561218557fe5b9060005260206000209060050201600401819055507f83bef255b3bb7739b6959faae348a68c0726edfde168734627ff91909adbeead85858585856040518086815260200180602001858152602001848152602001838152602001828103825286818151815260200191508051906020019080838360005b838110156122185780820151818401526020810190506121fd565b50505050905090810190601f1680156122455780820380516001836020036101000a031916815260200191505b50965050505050505060405180910390a15050505050565b606080600060606001805490506040519080825280602002602001820160405280156122985781602001602082028038833980820191505090505b50905060606001805490506040519080825280602002602001820160405280156122d15781602001602082028038833980820191505090505b509050600080905060008090505b600180549050811115156123e457876001828154811015156122fd57fe5b90600052602060002090600202016000015414156123d7576002600082815260200190815260200160002060009054906101000a900473ffffffffffffffffffffffffffffffffffffffff16848381518110151561235757fe5b9060200190602002019073ffffffffffffffffffffffffffffffffffffffff16908173ffffffffffffffffffffffffffffffffffffffff16815250506001818154811015156123a257fe5b90600052602060002090600202016001015483838151811015156123c257fe5b90602001906020020181815250506001820191505b80806001019150506122df565b508282829550955095505050509193909250565b60006001806040805190810160405280868152602001858152509080600181540180825580915050906001820390600052602060002090600202016000909192909190915060008201518160000155602082015181600101555050039050336002600083815260200190815260200160002060006101000a81548173ffffffffffffffffffffffffffffffffffffffff021916908373ffffffffffffffffffffffffffffffffffffffff1602179055507f4ba7a10596921962d8b565a9612a9276bd57ca6ea3a6a5bdc40c56b633a8254b81848460405180848152602001838152602001828152602001935050505060405180910390a1505050565b6060600080600080600060038781548110151561250d57fe5b90600052602060002090600502019050806000018160010154826002015483600301548460040154848054600181600116156101000203166002900480601f0160208091040260200160405190810160405280929190818152602001828054600181600116156101000203166002900480156125ca5780601f1061259f576101008083540402835291602001916125ca565b820191906000526020600020905b8154815290600101906020018083116125ad57829003601f168201915b50505050509450955095509550955095505091939590929450565b600073ffffffffffffffffffffffffffffffffffffffff168173ffffffffffffffffffffffffffffffffffffffff161415151561262157600080fd5b8073ffffffffffffffffffffffffffffffffffffffff166000809054906101000a900473ffffffffffffffffffffffffffffffffffffffff1673ffffffffffffffffffffffffffffffffffffffff167f8be0079c531659141344cd1fd0a4f28419497f9722a3daafe3b4186f6b6457e060405160405180910390a3806000806101000a81548173ffffffffffffffffffffffffffffffffffffffff021916908373ffffffffffffffffffffffffffffffffffffffff16021790555050565b806001838154811015156126ef57fe5b9060005260206000209060020201600101819055505050565b828054600181600116156101000203166002900490600052602060002090601f016020900481019282601f1061274957805160ff1916838001178555612777565b82800160010185558215612777579182015b8281111561277657825182559160200191906001019061275b565b5b5090506127849190612808565b5090565b828054600181600116156101000203166002900490600052602060002090601f016020900481019282601f106127c957805160ff19168380011785556127f7565b828001600101855582156127f7579182015b828111156127f65782518255916020019190600101906127db565b5b5090506128049190612808565b5090565b61282a91905b8082111561282657600081600090555060010161280e565b5090565b9056fea165627a7a7230582083c3f66b27677476df3ec77e34a72e40a043a088961a253a91ef0023bce0658b0029",
  "source": "pragma solidity >=0.4.21 <0.6.0;\nimport \"./product.sol\";\nimport \"./tx.sol\";\n\ncontract poChain is tx, product {\n\n    uint randNounce = 0;\n    constructor() public {\n\n    }\n    //Product here\n    /*********************************************************\n    *********************************************************/\n    function createproduct(string memory _hash, uint _cost, uint _goal, uint _deadline) public payable {\n        require(msg.value == (_goal+2 finney), \"must reserve exactly _state wei\");\n        _createproduct(_hash, _cost, _goal, _deadline);\n    }\n\n    function editproduct(uint Id, string memory _hash, uint _cost, uint _goal, uint _deadline) public payable {\n        //(,,oldstate) = _getproduct(Id);\n        require(msg.sender == Id2Owner[Id], \"CANT ACCESS\");\n        require(msg.value == (_goal+2)*(1 finney), \"value must equal with _goal+2\");\n        require(Id <= products.length, \"product Id not found\");\n        require(products[Id]._state > 0, \"product deleted\");\n        _editproduct(Id, _hash, _cost, _goal, _deadline);\n        (address payable[] memory Found, uint[] memory Amount, uint len) = _GoThoughTxById(Id);\n        for(uint i = 0; i < len; i++) {\n            Found[i].transfer(Amount[i]*1 finney);\n        }\n    }\n\n    function DLC(uint Id, uint deadline) public view returns(bool) {\n        require(Id <= products.length, \"product Id not found\");\n        require(products[Id]._state > 0, \"product deleted\");\n        if(products[Id].deadline == deadline)\n            return true;\n        else\n            return false;\n    }\n\n    function CheckDeadline(uint Id) public {\n        require(Id <= products.length, \"product Id not found\");\n        require(products[Id]._state > 0, \"product deleted\");\n        //Todo if DL Checked\n        //require(products[Id]._state > 0, \"deadline checked\");\n        if(now >= products[Id].deadline) {\n            msg.sender.transfer(2 finney);\n            // emit sth\n            if(products[Id]._state < products[Id]._goal)\n                _targetfailed(Id);\n        }\n    }\n\n    function CustomerRCVed(uint Id, uint TxId) public {\n        // Todo require ispaid ==false \n\n        Id2Owner[Id].transfer((txs[TxId].amount*products[Id]._cost)*1 finney);\n    }\n\n    // function _deadlinereached(uint Id) private {\n    //     if(products[Id]._state >= products[Id]._state)\n    //         _targetreached(Id);\n    //     else\n    //         _targetfailed(Id);\n    // }\n\n    // function _targetreached(uint Id) private {\n    //     Id2Owner[Id].transfer(products[Id]._state*products[Id]._cost*1 finney);\n    // }\n\n    function _targetfailed(uint Id) private {\n        (address payable[] memory Found, uint[] memory Amount, uint len) = _GoThoughTxById(Id);\n        for(uint i = 0; i < len; i++) {\n            Found[i].transfer((Amount[i]*products[Id]._cost+1)*1 finney);\n        }\n    }\n\n    //Tx here\n    /*********************************************************\n    *********************************************************/\n    function CreateTx(uint _ProductId,uint amount, string memory hash) public payable {\n        require(_ProductId >= (products.length-1), \"Product DNE\");\n        require(products[_ProductId]._state >= 1, \"Deleted Product\");\n        require(keccak256(abi.encodePacked(products[_ProductId]._hash)) == keccak256(abi.encodePacked(hash)), \"corrupted data\");\n        require(now <= products[_ProductId].deadline, \"pre-order ended\");\n        require(msg.value == products[_ProductId]._cost*amount, \"Not enough balance!!\");\n        _createtx(_ProductId, amount);\n        products[_ProductId]._state += amount;\n\n    }\n\n    function EditTx(uint TxId, uint _ProductId,uint amount, string memory hash) public payable {\n        require(_ProductId >= (products.length-1), \"Product DNE\");\n        require(txs[TxId]._ProductId == _ProductId, \"NOT THAT PRODUCT\");\n        require(Tx2Customer[TxId] == msg.sender, \"CANT ACCESS\");\n        //require(_ProductId >= (products.length-1), \"Product DNE\");\n        require(products[_ProductId]._state >= 1, \"Deleted Product\");\n        require(keccak256(abi.encodePacked(products[_ProductId]._hash)) == keccak256(abi.encodePacked(hash)), \"corrupted data\");\n        require(now <= products[_ProductId].deadline, \"pre-order ended\");\n        require(msg.value == products[_ProductId]._cost*amount, \"Not enough balance!!\");\n        (,uint oldamount) = _gettx(TxId);\n        _edittx(TxId, amount);\n        msg.sender.transfer(oldamount*products[_ProductId]._cost*1 finney);\n        products[_ProductId]._state -= oldamount;\n        products[_ProductId]._state += amount;\n    }\n\n    function getproduct(uint Id) public view returns(string memory, uint, uint, uint, uint) {\n        require(Id >= (products.length-1), \"Product DNE\");\n        //require(products[Id]._state >= 1, \"Deleted Product\");\n        return(_getproduct(Id));\n        // return hash, cost, state, goal, deadline\n    }\n\n    function gettx(uint Id) public view returns(uint, uint) {\n        require(Id >= (txs.length-1), \"Product DNE\");\n        //require(txs[Id]._s >= 1, \"Deleted Product\");\n        return(_gettx(Id));\n        // return hash, cost, state, goal, deadline\n    }\n}\n",
  "sourcePath": "/Users/karl/Desktop/pochain/contracts/poChain.sol",
  "compiler": {
    "name": "solc",
    "version": "0.5.0+commit.1d4f565a.Emscripten.clang"
  },
  "schemaVersion": "3.0.9",
  "updatedAt": "2019-06-06T17:52:40.943Z",
  "devdoc": {
    "methods": {
      "isOwner()": {
        "return": "true if `msg.sender` is the owner of the contract."
      },
      "owner()": {
        "return": "the address of the owner."
      },
      "renounceOwnership()": {
        "details": "Allows the current owner to relinquish control of the contract."
      },
      "transferOwnership(address)": {
        "details": "Allows the current owner to transfer control of the contract to a newOwner.",
        "params": {
          "newOwner": "The address to transfer ownership to."
        }
      }
    }
  },
  "userdoc": {
    "methods": {
      "CreateTx(uint256,uint256,string)": {
        "notice": "***************************************************************************************************************"
      },
      "createproduct(string,uint256,uint256,uint256)": {
        "notice": "***************************************************************************************************************"
      },
      "renounceOwnership()": {
        "notice": "Renouncing to ownership will leave the contract without an owner. It will not be possible to call the functions with the `onlyOwner` modifier anymore."
      }
    }
  }
}