{
  "contractName": "poChain",
  "abi": [
    {
      "constant": false,
      "inputs": [],
      "name": "renounceOwnership",
      "outputs": [],
      "payable": false,
      "stateMutability": "nonpayable",
      "type": "function"
    },
    {
      "constant": true,
      "inputs": [
        {
          "name": "",
          "type": "uint256"
        }
      ],
      "name": "products",
      "outputs": [
        {
          "name": "_hash",
          "type": "string"
        },
        {
          "name": "_cost",
          "type": "uint256"
        },
        {
          "name": "_state",
          "type": "uint256"
        },
        {
          "name": "_goal",
          "type": "uint256"
        },
        {
          "name": "_deadline",
          "type": "uint256"
        },
        {
          "name": "_deadlinecheck",
          "type": "bool"
        }
      ],
      "payable": false,
      "stateMutability": "view",
      "type": "function"
    },
    {
      "constant": true,
      "inputs": [],
      "name": "owner",
      "outputs": [
        {
          "name": "",
          "type": "address"
        }
      ],
      "payable": false,
      "stateMutability": "view",
      "type": "function"
    },
    {
      "constant": true,
      "inputs": [],
      "name": "isOwner",
      "outputs": [
        {
          "name": "",
          "type": "bool"
        }
      ],
      "payable": false,
      "stateMutability": "view",
      "type": "function"
    },
    {
      "constant": false,
      "inputs": [
        {
          "name": "newOwner",
          "type": "address"
        }
      ],
      "name": "transferOwnership",
      "outputs": [],
      "payable": false,
      "stateMutability": "nonpayable",
      "type": "function"
    },
    {
      "constant": true,
      "inputs": [
        {
          "name": "",
          "type": "uint256"
        }
      ],
      "name": "txs",
      "outputs": [
        {
          "name": "_ProductId",
          "type": "uint256"
        },
        {
          "name": "_amount",
          "type": "uint256"
        },
        {
          "name": "_isPaid",
          "type": "bool"
        }
      ],
      "payable": false,
      "stateMutability": "view",
      "type": "function"
    },
    {
      "inputs": [],
      "payable": false,
      "stateMutability": "nonpayable",
      "type": "constructor"
    },
    {
      "anonymous": false,
      "inputs": [
        {
          "indexed": false,
          "name": "id",
          "type": "uint256"
        },
        {
          "indexed": false,
          "name": "success",
          "type": "bool"
        }
      ],
      "name": "deadlineChecked",
      "type": "event"
    },
    {
      "anonymous": false,
      "inputs": [
        {
          "indexed": false,
          "name": "_productId",
          "type": "uint256"
        },
        {
          "indexed": false,
          "name": "_hash",
          "type": "string"
        },
        {
          "indexed": false,
          "name": "_cost",
          "type": "uint256"
        },
        {
          "indexed": false,
          "name": "_goal",
          "type": "uint256"
        },
        {
          "indexed": false,
          "name": "deadline",
          "type": "uint256"
        },
        {
          "indexed": false,
          "name": "producer",
          "type": "address"
        }
      ],
      "name": "productCreated",
      "type": "event"
    },
    {
      "anonymous": false,
      "inputs": [
        {
          "indexed": false,
          "name": "_oldId",
          "type": "uint256"
        },
        {
          "indexed": false,
          "name": "_productId",
          "type": "uint256"
        },
        {
          "indexed": false,
          "name": "_hash",
          "type": "string"
        },
        {
          "indexed": false,
          "name": "_cost",
          "type": "uint256"
        },
        {
          "indexed": false,
          "name": "_goal",
          "type": "uint256"
        },
        {
          "indexed": false,
          "name": "deadline",
          "type": "uint256"
        },
        {
          "indexed": false,
          "name": "producer",
          "type": "address"
        }
      ],
      "name": "productEdited",
      "type": "event"
    },
    {
      "anonymous": false,
      "inputs": [
        {
          "indexed": false,
          "name": "_productId",
          "type": "uint256"
        }
      ],
      "name": "productDeleted",
      "type": "event"
    },
    {
      "anonymous": false,
      "inputs": [
        {
          "indexed": false,
          "name": "TxId",
          "type": "uint256"
        },
        {
          "indexed": false,
          "name": "_ProductId",
          "type": "uint256"
        },
        {
          "indexed": false,
          "name": "amount",
          "type": "uint256"
        }
      ],
      "name": "TxCreated",
      "type": "event"
    },
    {
      "anonymous": false,
      "inputs": [
        {
          "indexed": true,
          "name": "previousOwner",
          "type": "address"
        },
        {
          "indexed": true,
          "name": "newOwner",
          "type": "address"
        }
      ],
      "name": "OwnershipTransferred",
      "type": "event"
    },
    {
      "constant": false,
      "inputs": [
        {
          "name": "_hash",
          "type": "string"
        },
        {
          "name": "_cost",
          "type": "uint256"
        },
        {
          "name": "_goal",
          "type": "uint256"
        },
        {
          "name": "_deadline",
          "type": "uint256"
        }
      ],
      "name": "createproduct",
      "outputs": [],
      "payable": true,
      "stateMutability": "payable",
      "type": "function"
    },
    {
      "constant": false,
      "inputs": [
        {
          "name": "_oldId",
          "type": "uint256"
        },
        {
          "name": "_hash",
          "type": "string"
        },
        {
          "name": "_cost",
          "type": "uint256"
        },
        {
          "name": "_goal",
          "type": "uint256"
        },
        {
          "name": "_deadline",
          "type": "uint256"
        }
      ],
      "name": "editproduct",
      "outputs": [],
      "payable": true,
      "stateMutability": "payable",
      "type": "function"
    },
    {
      "constant": false,
      "inputs": [
        {
          "name": "Id",
          "type": "uint256"
        }
      ],
      "name": "deleteProduct",
      "outputs": [],
      "payable": false,
      "stateMutability": "nonpayable",
      "type": "function"
    },
    {
      "constant": true,
      "inputs": [
        {
          "name": "Id",
          "type": "uint256"
        }
      ],
      "name": "deadlinePass",
      "outputs": [
        {
          "name": "",
          "type": "bool"
        }
      ],
      "payable": false,
      "stateMutability": "view",
      "type": "function"
    },
    {
      "constant": true,
      "inputs": [
        {
          "name": "Id",
          "type": "uint256"
        }
      ],
      "name": "isDeadlineChecked",
      "outputs": [
        {
          "name": "",
          "type": "bool"
        }
      ],
      "payable": false,
      "stateMutability": "view",
      "type": "function"
    },
    {
      "constant": false,
      "inputs": [
        {
          "name": "Id",
          "type": "uint256"
        }
      ],
      "name": "CheckDeadline",
      "outputs": [],
      "payable": false,
      "stateMutability": "nonpayable",
      "type": "function"
    },
    {
      "constant": false,
      "inputs": [
        {
          "name": "_ProductId",
          "type": "uint256"
        },
        {
          "name": "amount",
          "type": "uint256"
        },
        {
          "name": "hash",
          "type": "string"
        }
      ],
      "name": "CreateTx",
      "outputs": [],
      "payable": true,
      "stateMutability": "payable",
      "type": "function"
    },
    {
      "constant": false,
      "inputs": [
        {
          "name": "Id",
          "type": "uint256"
        },
        {
          "name": "TxId",
          "type": "uint256"
        }
      ],
      "name": "CustomerRCVed",
      "outputs": [],
      "payable": false,
      "stateMutability": "nonpayable",
      "type": "function"
    },
    {
      "constant": false,
      "inputs": [
        {
          "name": "_ProductId",
          "type": "uint256"
        },
        {
          "name": "TxId",
          "type": "uint256"
        },
        {
          "name": "amount",
          "type": "uint256"
        },
        {
          "name": "hash",
          "type": "string"
        }
      ],
      "name": "EditTx",
      "outputs": [],
      "payable": true,
      "stateMutability": "payable",
      "type": "function"
    },
    {
      "constant": true,
      "inputs": [
        {
          "name": "Id",
          "type": "uint256"
        }
      ],
      "name": "getproduct",
      "outputs": [
        {
          "name": "",
          "type": "string"
        },
        {
          "name": "",
          "type": "uint256"
        },
        {
          "name": "",
          "type": "uint256"
        },
        {
          "name": "",
          "type": "uint256"
        },
        {
          "name": "",
          "type": "uint256"
        }
      ],
      "payable": false,
      "stateMutability": "view",
      "type": "function"
    },
    {
      "constant": true,
      "inputs": [],
      "name": "getProductLength",
      "outputs": [
        {
          "name": "",
          "type": "uint256"
        }
      ],
      "payable": false,
      "stateMutability": "view",
      "type": "function"
    },
    {
      "constant": true,
      "inputs": [
        {
          "name": "Id",
          "type": "uint256"
        }
      ],
      "name": "gettx",
      "outputs": [
        {
          "name": "",
          "type": "uint256"
        },
        {
          "name": "",
          "type": "uint256"
        },
        {
          "name": "",
          "type": "bool"
        }
      ],
      "payable": false,
      "stateMutability": "view",
      "type": "function"
    },
    {
      "constant": true,
      "inputs": [],
      "name": "getTxLength",
      "outputs": [
        {
          "name": "",
          "type": "uint256"
        }
      ],
      "payable": false,
      "stateMutability": "view",
      "type": "function"
    }
  ],
  "bytecode": "0x6080604052600060055534801561001557600080fd5b50336000806101000a81548173ffffffffffffffffffffffffffffffffffffffff021916908373ffffffffffffffffffffffffffffffffffffffff1602179055506000809054906101000a900473ffffffffffffffffffffffffffffffffffffffff1673ffffffffffffffffffffffffffffffffffffffff16600073ffffffffffffffffffffffffffffffffffffffff167f8be0079c531659141344cd1fd0a4f28419497f9722a3daafe3b4186f6b6457e060405160405180910390a36133ce806100e16000396000f3fe608060405260043610610107576000357c0100000000000000000000000000000000000000000000000000000000900463ffffffff1680631deef4301461010c5780631efc1c6e146101e55780633d90b892146102385780634e05b9e514610299578063715018a6146102d45780637acc0b20146102eb5780638da5cb5b146103c65780638f32d59b1461041d57806397043f4d1461044c578063b4a256fb1461052f578063c6e6fbff146105fe578063d25edb7514610629578063e9928df01461067c578063ed90c7b7146106c1578063f008ef18146106fc578063f2d61819146107cc578063f2fde38b146107f7578063f5715d5614610848578063fde997fb146108a9575b600080fd5b6101e36004803603608081101561012257600080fd5b810190808035906020019064010000000081111561013f57600080fd5b82018360208201111561015157600080fd5b8035906020019184600183028401116401000000008311171561017357600080fd5b91908080601f016020809104026020016040519081016040528093929190818152602001838380828437600081840152601f19601f820116905080830192505050505050509192919290803590602001909291908035906020019092919080359060200190929190505050610982565b005b3480156101f157600080fd5b5061021e6004803603602081101561020857600080fd5b8101908080359060200190929190505050610a3e565b604051808215151515815260200191505060405180910390f35b34801561024457600080fd5b506102716004803603602081101561025b57600080fd5b8101908080359060200190929190505050610bb0565b6040518084815260200183815260200182151515158152602001935050505060405180910390f35b3480156102a557600080fd5b506102d2600480360360208110156102bc57600080fd5b8101908080359060200190929190505050610c47565b005b3480156102e057600080fd5b506102e9611052565b005b3480156102f757600080fd5b506103246004803603602081101561030e57600080fd5b8101908080359060200190929190505050611124565b604051808060200187815260200186815260200185815260200184815260200183151515158152602001828103825288818151815260200191508051906020019080838360005b8381101561038657808201518184015260208101905061036b565b50505050905090810190601f1680156103b35780820380516001836020036101000a031916815260200191505b5097505050505050505060405180910390f35b3480156103d257600080fd5b506103db611214565b604051808273ffffffffffffffffffffffffffffffffffffffff1673ffffffffffffffffffffffffffffffffffffffff16815260200191505060405180910390f35b34801561042957600080fd5b5061043261123d565b604051808215151515815260200191505060405180910390f35b61052d600480360360a081101561046257600080fd5b81019080803590602001909291908035906020019064010000000081111561048957600080fd5b82018360208201111561049b57600080fd5b803590602001918460018302840111640100000000831117156104bd57600080fd5b91908080601f016020809104026020016040519081016040528093929190818152602001838380828437600081840152601f19601f820116905080830192505050505050509192919290803590602001909291908035906020019092919080359060200190929190505050611294565b005b6105fc6004803603606081101561054557600080fd5b8101908080359060200190929190803590602001909291908035906020019064010000000081111561057657600080fd5b82018360208201111561058857600080fd5b803590602001918460018302840111640100000000831117156105aa57600080fd5b91908080601f016020809104026020016040519081016040528093929190818152602001838380828437600081840152601f19601f820116905080830192505050505050509192919290505050611613565b005b34801561060a57600080fd5b50610613611a46565b6040518082815260200191505060405180910390f35b34801561063557600080fd5b506106626004803603602081101561064c57600080fd5b8101908080359060200190929190505050611a53565b604051808215151515815260200191505060405180910390f35b34801561068857600080fd5b506106bf6004803603604081101561069f57600080fd5b810190808035906020019092919080359060200190929190505050611bcc565b005b3480156106cd57600080fd5b506106fa600480360360208110156106e457600080fd5b8101908080359060200190929190505050611d76565b005b34801561070857600080fd5b506107356004803603602081101561071f57600080fd5b8101908080359060200190929190505050612043565b6040518080602001868152602001858152602001848152602001838152602001828103825287818151815260200191508051906020019080838360005b8381101561078d578082015181840152602081019050610772565b50505050905090810190601f1680156107ba5780820380516001836020036101000a031916815260200191505b50965050505050505060405180910390f35b3480156107d857600080fd5b506107e1612109565b6040518082815260200191505060405180910390f35b34801561080357600080fd5b506108466004803603602081101561081a57600080fd5b81019080803573ffffffffffffffffffffffffffffffffffffffff169060200190929190505050612116565b005b34801561085457600080fd5b506108816004803603602081101561086b57600080fd5b8101908080359060200190929190505050612135565b6040518084815260200183815260200182151515158152602001935050505060405180910390f35b610980600480360360808110156108bf57600080fd5b81019080803590602001909291908035906020019092919080359060200190929190803590602001906401000000008111156108fa57600080fd5b82018360208201111561090c57600080fd5b8035906020019184600183028401116401000000008311171561092e57600080fd5b91908080601f016020809104026020016040519081016040528093929190818152602001838380828437600081840152601f19601f82011690508083019250505050505050919291929050505061217b565b005b66038d7ea4c68000600283010234141515610a2b576040517f08c379a00000000000000000000000000000000000000000000000000000000081526004018080602001828103825260328152602001807f706f436861696e204572726f723a206d7573742072657365727665206578616381526020017f746c79205f676f616c2b322066696e6e6579000000000000000000000000000081525060400191505060405180910390fd5b610a388484848433612817565b50505050565b60006003805490508211151515610ae3576040517f08c379a00000000000000000000000000000000000000000000000000000000081526004018080602001828103825260238152602001807f706f436861696e204572726f723a2070726f64756374204964206e6f7420666f81526020017f756e64000000000000000000000000000000000000000000000000000000000081525060400191505060405180910390fd5b6000600383815481101515610af457fe5b906000526020600020906006020160030154111515610b7b576040517f08c379a000000000000000000000000000000000000000000000000000000000815260040180806020018281038252601e8152602001807f706f436861696e204572726f723a2070726f647563742064656c65746564000081525060200191505060405180910390fd5b600382815481101515610b8a57fe5b906000526020600020906006020160050160009054906101000a900460ff169050919050565b600080600060018054905084101515610c31576040517f08c379a00000000000000000000000000000000000000000000000000000000081526004018080602001828103825260208152602001807f706f436861696e204572726f723a20747820646f6573206e6f7420657869737481525060200191505060405180910390fd5b610c3a84612a2e565b9250925092509193909250565b6003805490508111151515610cea576040517f08c379a00000000000000000000000000000000000000000000000000000000081526004018080602001828103825260238152602001807f706f436861696e204572726f723a2070726f64756374204964206e6f7420666f81526020017f756e64000000000000000000000000000000000000000000000000000000000081525060400191505060405180910390fd5b6000600382815481101515610cfb57fe5b906000526020600020906006020160030154111515610d82576040517f08c379a000000000000000000000000000000000000000000000000000000000815260040180806020018281038252601e8152602001807f706f436861696e204572726f723a2070726f647563742064656c65746564000081525060200191505060405180910390fd5b60001515600382815481101515610d9557fe5b906000526020600020906006020160050160009054906101000a900460ff161515141515610e2b576040517f08c379a000000000000000000000000000000000000000000000000000000000815260040180806020018281038252601f8152602001807f706f436861696e204572726f723a20646561646c696e6520636865636b65640081525060200191505060405180910390fd5b600381815481101515610e3a57fe5b9060005260206000209060060201600401544210151515610ee9576040517f08c379a00000000000000000000000000000000000000000000000000000000081526004018080602001828103825260268152602001807f706f436861696e204572726f723a20646561646c696e65206973206e6f74207281526020017f656163686564000000000000000000000000000000000000000000000000000081525060400191505060405180910390fd5b3373ffffffffffffffffffffffffffffffffffffffff166108fc66071afd498d00009081150290604051600060405180830381858888f19350505050158015610f36573d6000803e3d6000fd5b506001600382815481101515610f4857fe5b906000526020600020906006020160050160006101000a81548160ff021916908315150217905550600381815481101515610f7f57fe5b906000526020600020906006020160030154600382815481101515610fa057fe5b906000526020600020906006020160020154101561100a57610fc181612a7d565b7f45ab7475d7ebb274c832a428bffa5309fa28274cfa5c825009e5819d29f4454681600060405180838152602001821515151581526020019250505060405180910390a161104f565b7f45ab7475d7ebb274c832a428bffa5309fa28274cfa5c825009e5819d29f4454681600160405180838152602001821515151581526020019250505060405180910390a15b50565b61105a61123d565b151561106557600080fd5b600073ffffffffffffffffffffffffffffffffffffffff166000809054906101000a900473ffffffffffffffffffffffffffffffffffffffff1673ffffffffffffffffffffffffffffffffffffffff167f8be0079c531659141344cd1fd0a4f28419497f9722a3daafe3b4186f6b6457e060405160405180910390a360008060006101000a81548173ffffffffffffffffffffffffffffffffffffffff021916908373ffffffffffffffffffffffffffffffffffffffff160217905550565b60038181548110151561113357fe5b9060005260206000209060060201600091509050806000018054600181600116156101000203166002900480601f0160208091040260200160405190810160405280929190818152602001828054600181600116156101000203166002900480156111df5780601f106111b4576101008083540402835291602001916111df565b820191906000526020600020905b8154815290600101906020018083116111c257829003601f168201915b5050505050908060010154908060020154908060030154908060040154908060050160009054906101000a900460ff16905086565b60008060009054906101000a900473ffffffffffffffffffffffffffffffffffffffff16905090565b60008060009054906101000a900473ffffffffffffffffffffffffffffffffffffffff1673ffffffffffffffffffffffffffffffffffffffff163373ffffffffffffffffffffffffffffffffffffffff1614905090565b6004600086815260200190815260200160002060009054906101000a900473ffffffffffffffffffffffffffffffffffffffff1673ffffffffffffffffffffffffffffffffffffffff163373ffffffffffffffffffffffffffffffffffffffff1614151561136a576040517f08c379a000000000000000000000000000000000000000000000000000000000815260040180806020018281038252601c8152602001807f706f436861696e204572726f723a2063616e6e6f74206163636573730000000081525060200191505060405180910390fd5b66038d7ea4c68000600283010234141515611413576040517f08c379a00000000000000000000000000000000000000000000000000000000081526004018080602001828103825260338152602001807f706f436861696e204572726f723a2076616c7565206d75737420657175616c2081526020017f77697468205f676f616c2b322066696e6e65790000000000000000000000000081525060400191505060405180910390fd5b600380549050851015156114b5576040517f08c379a00000000000000000000000000000000000000000000000000000000081526004018080602001828103825260278152602001807f706f436861696e204572726f723a2070726f64756374206f6c64204964206e6f81526020017f7420666f756e640000000000000000000000000000000000000000000000000081525060400191505060405180910390fd5b60006003868154811015156114c657fe5b90600052602060002090600602016003015411151561154d576040517f08c379a000000000000000000000000000000000000000000000000000000000815260040180806020018281038252601e8152602001807f706f436861696e204572726f723a2070726f647563742064656c65746564000081525060200191505060405180910390fd5b61155b858585858533612b56565b606080600061156988612d9c565b92509250925060008090505b8181101561160857838181518110151561158b57fe5b9060200190602002015173ffffffffffffffffffffffffffffffffffffffff166108fc66038d7ea4c6800085848151811015156115c457fe5b90602001906020020151029081150290604051600060405180830381858888f193505050501580156115fa573d6000803e3d6000fd5b508080600101915050611575565b505050505050505050565b6003805490508310151561168f576040517f08c379a000000000000000000000000000000000000000000000000000000000815260040180806020018281038252601a8152602001807f706f436861696e204572726f723a2050726f6475637420444e4500000000000081525060200191505060405180910390fd5b60006003848154811015156116a057fe5b906000526020600020906006020160030154111515611727576040517f08c379a000000000000000000000000000000000000000000000000000000000815260040180806020018281038252601e8152602001807f706f436861696e204572726f723a2044656c657465642050726f64756374000081525060200191505060405180910390fd5b806040516020018082805190602001908083835b602083101515611760578051825260208201915060208101905060208303925061173b565b6001836020036101000a038019825116818451168082178552505050505050905001915050604051602081830303815290604052805190602001206003848154811015156117aa57fe5b906000526020600020906006020160000160405160200180828054600181600116156101000203166002900480156118195780601f106117f7576101008083540402835291820191611819565b820191906000526020600020905b815481529060010190602001808311611805575b5050915050604051602081830303815290604052805190602001201415156118a9576040517f08c379a000000000000000000000000000000000000000000000000000000000815260040180806020018281038252601d8152602001807f706f436861696e204572726f723a20636f72727570746564206461746100000081525060200191505060405180910390fd5b6003838154811015156118b857fe5b90600052602060002090600602016004015442101515611940576040517f08c379a000000000000000000000000000000000000000000000000000000000815260040180806020018281038252601e8152602001807f706f436861696e204572726f723a207072652d6f7264657220656e646564000081525060200191505060405180910390fd5b66038d7ea4c680008260038581548110151561195857fe5b906000526020600020906006020160010154020234141515611a08576040517f08c379a00000000000000000000000000000000000000000000000000000000081526004018080602001828103825260238152602001807f706f436861696e204572726f723a204e6f7420656e6f7567682062616c616e6381526020017f652121000000000000000000000000000000000000000000000000000000000081525060400191505060405180910390fd5b611a13838333612f62565b81600384815481101515611a2357fe5b906000526020600020906006020160020160008282540192505081905550505050565b6000600180549050905090565b60006003805490508211151515611af8576040517f08c379a00000000000000000000000000000000000000000000000000000000081526004018080602001828103825260238152602001807f706f436861696e204572726f723a2070726f64756374204964206e6f7420666f81526020017f756e64000000000000000000000000000000000000000000000000000000000081525060400191505060405180910390fd5b6000600383815481101515611b0957fe5b906000526020600020906006020160030154111515611b90576040517f08c379a000000000000000000000000000000000000000000000000000000000815260040180806020018281038252601e8152602001807f706f436861696e204572726f723a2070726f647563742064656c65746564000081525060200191505060405180910390fd5b42600383815481101515611ba057fe5b906000526020600020906006020160040154111515611bc25760019050611bc7565b600090505b919050565b60001515600182815481101515611bdf57fe5b906000526020600020906003020160020160009054906101000a900460ff161515141515611c75576040517f08c379a00000000000000000000000000000000000000000000000000000000081526004018080602001828103825260198152602001807f706f436861696e204572726f723a20747820697320706169640000000000000081525060200191505060405180910390fd5b60018082815481101515611c8557fe5b906000526020600020906003020160020160006101000a81548160ff0219169083151502179055506004600083815260200190815260200160002060009054906101000a900473ffffffffffffffffffffffffffffffffffffffff1673ffffffffffffffffffffffffffffffffffffffff166108fc66038d7ea4c68000600385815481101515611d1157fe5b906000526020600020906006020160010154600185815481101515611d3257fe5b90600052602060002090600302016001015402029081150290604051600060405180830381858888f19350505050158015611d71573d6000803e3d6000fd5b505050565b6004600082815260200190815260200160002060009054906101000a900473ffffffffffffffffffffffffffffffffffffffff1673ffffffffffffffffffffffffffffffffffffffff163373ffffffffffffffffffffffffffffffffffffffff16141515611e4c576040517f08c379a000000000000000000000000000000000000000000000000000000000815260040180806020018281038252601c8152602001807f706f436861696e204572726f723a2063616e6e6f74206163636573730000000081525060200191505060405180910390fd5b60038054905081101515611eee576040517f08c379a00000000000000000000000000000000000000000000000000000000081526004018080602001828103825260238152602001807f706f436861696e204572726f723a2070726f64756374204964206e6f7420666f81526020017f756e64000000000000000000000000000000000000000000000000000000000081525060400191505060405180910390fd5b6000600382815481101515611eff57fe5b906000526020600020906006020160030154111515611f86576040517f08c379a000000000000000000000000000000000000000000000000000000000815260040180806020018281038252601e8152602001807f706f436861696e204572726f723a2070726f647563742064656c65746564000081525060200191505060405180910390fd5b611f8f81613089565b6060806000611f9d84612d9c565b92509250925060008090505b8181101561203c578381815181101515611fbf57fe5b9060200190602002015173ffffffffffffffffffffffffffffffffffffffff166108fc66038d7ea4c680008584815181101515611ff857fe5b90602001906020020151029081150290604051600060405180830381858888f1935050505015801561202e573d6000803e3d6000fd5b508080600101915050611fa9565b5050505050565b6060600080600080600380549050861015156120ed576040517f08c379a00000000000000000000000000000000000000000000000000000000081526004018080602001828103825260258152602001807f706f436861696e204572726f723a2070726f6475637420646f6573206e6f742081526020017f657869737400000000000000000000000000000000000000000000000000000081525060400191505060405180910390fd5b6120f6866130e9565b9450945094509450945091939590929450565b6000600380549050905090565b61211e61123d565b151561212957600080fd5b612132816131da565b50565b60018181548110151561214457fe5b90600052602060002090600302016000915090508060000154908060010154908060020160009054906101000a900460ff16905083565b6003805490508410151561221d576040517f08c379a00000000000000000000000000000000000000000000000000000000081526004018080602001828103825260258152602001807f706f436861696e204572726f723a2070726f6475637420646f6573206e6f742081526020017f657869737400000000000000000000000000000000000000000000000000000081525060400191505060405180910390fd5b8360018481548110151561222d57fe5b9060005260206000209060030201600001541415156122da576040517f08c379a00000000000000000000000000000000000000000000000000000000081526004018080602001828103825260228152602001807f706f436861696e204572726f723a2070726f64756374206964206d69736d617481526020017f636800000000000000000000000000000000000000000000000000000000000081525060400191505060405180910390fd5b3373ffffffffffffffffffffffffffffffffffffffff166002600085815260200190815260200160002060009054906101000a900473ffffffffffffffffffffffffffffffffffffffff1673ffffffffffffffffffffffffffffffffffffffff161415156123b0576040517f08c379a000000000000000000000000000000000000000000000000000000000815260040180806020018281038252601c8152602001807f706f436861696e204572726f723a20636f6e6e6f74206163636573730000000081525060200191505060405180910390fd5b60006003858154811015156123c157fe5b906000526020600020906006020160030154111515612448576040517f08c379a000000000000000000000000000000000000000000000000000000000815260040180806020018281038252601e8152602001807f706f436861696e204572726f723a2064656c657465642070726f64756374000081525060200191505060405180910390fd5b806040516020018082805190602001908083835b602083101515612481578051825260208201915060208101905060208303925061245c565b6001836020036101000a038019825116818451168082178552505050505050905001915050604051602081830303815290604052805190602001206003858154811015156124cb57fe5b9060005260206000209060060201600001604051602001808280546001816001161561010002031660029004801561253a5780601f1061251857610100808354040283529182019161253a565b820191906000526020600020905b815481529060010190602001808311612526575b5050915050604051602081830303815290604052805190602001201415156125ca576040517f08c379a000000000000000000000000000000000000000000000000000000000815260040180806020018281038252601d8152602001807f706f436861696e204572726f723a20636f72727570746564206461746100000081525060200191505060405180910390fd5b6003848154811015156125d957fe5b90600052602060002090600602016004015442101515612661576040517f08c379a000000000000000000000000000000000000000000000000000000000815260040180806020018281038252601e8152602001807f706f436861696e204572726f723a207072652d6f7264657220656e646564000081525060200191505060405180910390fd5b66038d7ea4c680008260038681548110151561267957fe5b906000526020600020906006020160010154020234141515612729576040517f08c379a00000000000000000000000000000000000000000000000000000000081526004018080602001828103825260238152602001807f706f436861696e204572726f723a204e6f7420656e6f7567682062616c616e6381526020017f652121000000000000000000000000000000000000000000000000000000000081525060400191505060405180910390fd5b600061273484612a2e565b5091505061274284846132d4565b3373ffffffffffffffffffffffffffffffffffffffff166108fc66038d7ea4c6800060038881548110151561277357fe5b9060005260206000209060060201600101548402029081150290604051600060405180830381858888f193505050501580156127b3573d6000803e3d6000fd5b50806003868154811015156127c457fe5b906000526020600020906006020160020160008282540392505081905550826003868154811015156127f257fe5b9060005260206000209060060201600201600082825401925050819055505050505050565b60006001600360c06040519081016040528089815260200188815260200160008152602001878152602001868152602001600015158152509080600181540180825580915050906001820390600052602060002090600602016000909192909190915060008201518160000190805190602001906128969291906132fd565b506020820151816001015560408201518160020155606082015181600301556080820151816004015560a08201518160050160006101000a81548160ff0219169083151502179055505050039050816004600083815260200190815260200160002060006101000a81548173ffffffffffffffffffffffffffffffffffffffff021916908373ffffffffffffffffffffffffffffffffffffffff1602179055507f5ddce98248c321e823dcc1ddd441e876da418c9b523d1cdbb9e9e935647e705381878787878760405180878152602001806020018681526020018581526020018481526020018373ffffffffffffffffffffffffffffffffffffffff1673ffffffffffffffffffffffffffffffffffffffff168152602001828103825287818151815260200191508051906020019080838360005b838110156129e75780820151818401526020810190506129cc565b50505050905090810190601f168015612a145780820380516001836020036101000a031916815260200191505b5097505050505050505060405180910390a1505050505050565b600080600080600185815481101515612a4357fe5b90600052602060002090600302019050806000015481600101548260020160009054906101000a900460ff16935093509350509193909250565b6060806000612a8b84612d9c565b92509250925060008090505b81811015612b4f578381815181101515612aad57fe5b9060200190602002015173ffffffffffffffffffffffffffffffffffffffff166108fc66038d7ea4c680006001600389815481101515612ae957fe5b9060005260206000209060060201600101548786815181101515612b0957fe5b906020019060200201510201029081150290604051600060405180830381858888f19350505050158015612b41573d6000803e3d6000fd5b508080600101915050612a97565b5050505050565b6000600387815481101515612b6757fe5b90600052602060002090600602016003018190555060006001600360c0604051908101604052808981526020018881526020016000815260200187815260200186815260200160001515815250908060018154018082558091505090600182039060005260206000209060060201600090919290919091506000820151816000019080519060200190612bfb9291906132fd565b506020820151816001015560408201518160020155606082015181600301556080820151816004015560a08201518160050160006101000a81548160ff0219169083151502179055505050039050816004600083815260200190815260200160002060006101000a81548173ffffffffffffffffffffffffffffffffffffffff021916908373ffffffffffffffffffffffffffffffffffffffff1602179055507f2a7aa6d6df3ba5024a896f502e4c7078ae6024911bb737e96aa00dc60920fc808782888888888860405180888152602001878152602001806020018681526020018581526020018481526020018373ffffffffffffffffffffffffffffffffffffffff1673ffffffffffffffffffffffffffffffffffffffff168152602001828103825287818151815260200191508051906020019080838360005b83811015612d53578082015181840152602081019050612d38565b50505050905090810190601f168015612d805780820380516001836020036101000a031916815260200191505b509850505050505050505060405180910390a150505050505050565b60608060006060600180549050604051908082528060200260200182016040528015612dd75781602001602082028038833980820191505090505b5090506060600180549050604051908082528060200260200182016040528015612e105781602001602082028038833980820191505090505b509050600080905060008090505b600180549050811015612f4e5787600182815481101515612e3b57fe5b906000526020600020906003020160000154148015612e7a57506000600182815481101515612e6657fe5b906000526020600020906003020160010154115b15612f4157600181815481101515612e8e57fe5b9060005260206000209060030201600101548383815181101515612eae57fe5b90602001906020020181815250506002600082815260200190815260200160002060009054906101000a900473ffffffffffffffffffffffffffffffffffffffff168483815181101515612efe57fe5b9060200190602002019073ffffffffffffffffffffffffffffffffffffffff16908173ffffffffffffffffffffffffffffffffffffffff16815250506001820191505b8080600101915050612e1e565b508282829550955095505050509193909250565b60006001806060604051908101604052808781526020018681526020016000151581525090806001815401808255809150509060018203906000526020600020906003020160009091929091909150600082015181600001556020820151816001015560408201518160020160006101000a81548160ff0219169083151502179055505050039050816002600083815260200190815260200160002060006101000a81548173ffffffffffffffffffffffffffffffffffffffff021916908373ffffffffffffffffffffffffffffffffffffffff1602179055507f4ba7a10596921962d8b565a9612a9276bd57ca6ea3a6a5bdc40c56b633a8254b81858560405180848152602001838152602001828152602001935050505060405180910390a150505050565b600060038281548110151561309a57fe5b9060005260206000209060060201600301819055507fb9cf51de0e349fe22cdf4be36898ccd86f49c14f931aaf57f3c2d617821d1118816040518082815260200191505060405180910390a150565b6060600080600080600060038781548110151561310257fe5b90600052602060002090600602019050806000018160010154826002015483600301548460040154848054600181600116156101000203166002900480601f0160208091040260200160405190810160405280929190818152602001828054600181600116156101000203166002900480156131bf5780601f10613194576101008083540402835291602001916131bf565b820191906000526020600020905b8154815290600101906020018083116131a257829003601f168201915b50505050509450955095509550955095505091939590929450565b600073ffffffffffffffffffffffffffffffffffffffff168173ffffffffffffffffffffffffffffffffffffffff161415151561321657600080fd5b8073ffffffffffffffffffffffffffffffffffffffff166000809054906101000a900473ffffffffffffffffffffffffffffffffffffffff1673ffffffffffffffffffffffffffffffffffffffff167f8be0079c531659141344cd1fd0a4f28419497f9722a3daafe3b4186f6b6457e060405160405180910390a3806000806101000a81548173ffffffffffffffffffffffffffffffffffffffff021916908373ffffffffffffffffffffffffffffffffffffffff16021790555050565b806001838154811015156132e457fe5b9060005260206000209060030201600101819055505050565b828054600181600116156101000203166002900490600052602060002090601f016020900481019282601f1061333e57805160ff191683800117855561336c565b8280016001018555821561336c579182015b8281111561336b578251825591602001919060010190613350565b5b509050613379919061337d565b5090565b61339f91905b8082111561339b576000816000905550600101613383565b5090565b9056fea165627a7a72305820d2ba10e3d16a982710d0bd78d06650a2c78ce691655672322aa2c5752b2ab58e0029",
  "source": "pragma solidity >=0.4.21 <0.6.0;\nimport \"./product.sol\";\nimport \"./Transaction.sol\";\n\ncontract poChain is Transaction, product {\n\n    uint randNounce = 0;\n    constructor() public {\n\n    }\n    //Product here\n    /*********************************************************\n    *********************************************************/\n    event deadlineChecked(uint id, bool success); \n\n    function createproduct(string memory _hash, uint _cost, uint _goal, uint _deadline) public payable {\n        require(msg.value == ((_goal + 2) * (1 finney)), \"poChain Error: must reserve exactly _goal+2 finney\");\n        _createproduct(_hash, _cost, _goal, _deadline, msg.sender);\n    }\n\n    function editproduct(uint _oldId, string memory _hash, uint _cost, uint _goal, uint _deadline) public payable {\n        require(msg.sender == Id2Owner[_oldId], \"poChain Error: cannot access\");\n        require(msg.value == (_goal+2)*(1 finney), \"poChain Error: value must equal with _goal+2 finney\");\n        require(_oldId < products.length, \"poChain Error: product old Id not found\");\n        require(products[_oldId]._goal > 0, \"poChain Error: product deleted\");\n        _editproduct(_oldId, _hash, _cost, _goal, _deadline, msg.sender);\n        (address payable[] memory Found, uint[] memory Amount, uint len) = _GoThoughTxById(_oldId);\n        for(uint i = 0; i < len; i++) {\n            Found[i].transfer(Amount[i]*1 finney);\n        }\n    }\n\n    function deleteProduct(uint Id) public {\n        require(msg.sender == Id2Owner[Id], \"poChain Error: cannot access\");\n        require(Id < products.length, \"poChain Error: product Id not found\");\n        require(products[Id]._goal > 0, \"poChain Error: product deleted\");\n        _deleteproduct(Id);\n        (address payable[] memory Found, uint[] memory Amount, uint len) = _GoThoughTxById(Id);\n        for(uint i = 0; i < len; i++) {\n            Found[i].transfer(Amount[i]*1 finney);\n        }\n    }\n\n    function deadlinePass(uint Id) public view returns(bool) {\n        require(Id <= products.length, \"poChain Error: product Id not found\");\n        require(products[Id]._goal > 0, \"poChain Error: product deleted\");\n        if(products[Id]._deadline <= now)\n            return true;\n        return false;\n    }\n\n    function isDeadlineChecked(uint Id) public view returns(bool) {\n        require(Id <= products.length, \"poChain Error: product Id not found\");\n        require(products[Id]._goal > 0, \"poChain Error: product deleted\");\n        return products[Id]._deadlinecheck;\n    }\n\n    function CheckDeadline(uint Id) public {\n        require(Id <= products.length, \"poChain Error: product Id not found\");\n        require(products[Id]._goal > 0, \"poChain Error: product deleted\");\n        require(products[Id]._deadlinecheck == false, \"poChain Error: deadline checked\");\n        require(now >= products[Id]._deadline, \"poChain Error: deadline is not reached\");\n        msg.sender.transfer(2 finney);\n        products[Id]._deadlinecheck = true;\n        if(products[Id]._state < products[Id]._goal) {\n            _targetfailed(Id);\n            emit deadlineChecked(Id, false);\n        } else {\n            emit deadlineChecked(Id, true);\n        }\n    }\n\n    function _targetfailed(uint Id) private {\n        (address payable[] memory Found, uint[] memory Amount, uint len) = _GoThoughTxById(Id);\n        for(uint i = 0; i < len; i++) {\n            Found[i].transfer((Amount[i]*products[Id]._cost+1)*1 finney);\n        }\n    }\n\n    //Tx here\n    /*********************************************************\n    *********************************************************/\n    function CreateTx(uint _ProductId,uint amount, string memory hash) public payable {\n        require(_ProductId < products.length, \"poChain Error: Product DNE\");\n        require(products[_ProductId]._goal > 0, \"poChain Error: Deleted Product\");\n        require(keccak256(abi.encodePacked(products[_ProductId]._hash)) == keccak256(abi.encodePacked(hash)), \"poChain Error: corrupted data\");\n        require(now < products[_ProductId]._deadline, \"poChain Error: pre-order ended\");\n        require(msg.value == products[_ProductId]._cost * amount * 1 finney, \"poChain Error: Not enough balance!!\");\n        _createtx(_ProductId, amount, msg.sender);\n        products[_ProductId]._state += amount;\n\n    }\n\n    function CustomerRCVed(uint Id, uint TxId) public {\n        require(txs[TxId]._isPaid == false, \"poChain Error: tx is paid\");\n        txs[TxId]._isPaid = true;\n        Id2Owner[Id].transfer((txs[TxId]._amount*products[Id]._cost)*1 finney);\n    }\n\n    function EditTx(uint _ProductId, uint TxId ,uint amount, string memory hash) public payable {\n        require(_ProductId < products.length, \"poChain Error: product does not exist\");\n        require(txs[TxId]._ProductId == _ProductId, \"poChain Error: product id mismatch\");\n        require(Tx2Customer[TxId] == msg.sender, \"poChain Error: connot access\");\n        require(products[_ProductId]._goal > 0, \"poChain Error: deleted product\");\n        require(keccak256(abi.encodePacked(products[_ProductId]._hash)) == keccak256(abi.encodePacked(hash)), \"poChain Error: corrupted data\");\n        require(now < products[_ProductId]._deadline, \"poChain Error: pre-order ended\");\n        require(msg.value == products[_ProductId]._cost * amount * 1 finney, \"poChain Error: Not enough balance!!\");\n        (,uint oldamount,) = _gettx(TxId);\n        _edittx(TxId, amount);\n        msg.sender.transfer(oldamount*products[_ProductId]._cost*1 finney);\n        products[_ProductId]._state -= oldamount;\n        products[_ProductId]._state += amount;\n    }\n\n    function getproduct(uint Id) public view returns(string memory, uint, uint, uint, uint) {\n        require(Id  < products.length, \"poChain Error: product does not exist\");\n        return(_getproduct(Id));\n        // return hash, cost, state, goal, deadline\n    }\n\n    function getProductLength() public view returns(uint) {\n        return products.length;\n    }\n\n    function gettx(uint Id) public view returns(uint, uint, bool) {\n        require(Id < txs.length, \"poChain Error: tx does not exist\");\n        return(_gettx(Id));\n        // return txid, amount, ispaid\n    }\n\n    function getTxLength() public view returns(uint) {\n        return txs.length;\n    }\n}\n",
  "sourcePath": "/Users/karl/Desktop/pochain/contracts/poChain.sol",
  "compiler": {
    "name": "solc",
    "version": "0.5.0+commit.1d4f565a.Emscripten.clang"
  },
  "schemaVersion": "3.0.9",
  "updatedAt": "2019-06-07T09:57:33.135Z",
  "devdoc": {
    "methods": {
      "isOwner()": {
        "return": "true if `msg.sender` is the owner of the contract."
      },
      "owner()": {
        "return": "the address of the owner."
      },
      "renounceOwnership()": {
        "details": "Allows the current owner to relinquish control of the contract."
      },
      "transferOwnership(address)": {
        "details": "Allows the current owner to transfer control of the contract to a newOwner.",
        "params": {
          "newOwner": "The address to transfer ownership to."
        }
      }
    }
  },
  "userdoc": {
    "methods": {
      "CreateTx(uint256,uint256,string)": {
        "notice": "***************************************************************************************************************"
      },
      "renounceOwnership()": {
        "notice": "Renouncing to ownership will leave the contract without an owner. It will not be possible to call the functions with the `onlyOwner` modifier anymore."
      }
    }
  }
}