{
  "contractName": "poChain",
  "abi": [
    {
      "constant": false,
      "inputs": [],
      "name": "renounceOwnership",
      "outputs": [],
      "payable": false,
      "stateMutability": "nonpayable",
      "type": "function"
    },
    {
      "constant": true,
      "inputs": [
        {
          "name": "",
          "type": "uint256"
        }
      ],
      "name": "products",
      "outputs": [
        {
          "name": "_hash",
          "type": "string"
        },
        {
          "name": "_cost",
          "type": "uint256"
        },
        {
          "name": "_state",
          "type": "uint256"
        },
        {
          "name": "_goal",
          "type": "uint256"
        },
        {
          "name": "_deadline",
          "type": "uint256"
        },
        {
          "name": "_deadlinecheck",
          "type": "bool"
        }
      ],
      "payable": false,
      "stateMutability": "view",
      "type": "function"
    },
    {
      "constant": true,
      "inputs": [],
      "name": "owner",
      "outputs": [
        {
          "name": "",
          "type": "address"
        }
      ],
      "payable": false,
      "stateMutability": "view",
      "type": "function"
    },
    {
      "constant": true,
      "inputs": [],
      "name": "isOwner",
      "outputs": [
        {
          "name": "",
          "type": "bool"
        }
      ],
      "payable": false,
      "stateMutability": "view",
      "type": "function"
    },
    {
      "constant": false,
      "inputs": [
        {
          "name": "newOwner",
          "type": "address"
        }
      ],
      "name": "transferOwnership",
      "outputs": [],
      "payable": false,
      "stateMutability": "nonpayable",
      "type": "function"
    },
    {
      "constant": true,
      "inputs": [
        {
          "name": "",
          "type": "uint256"
        }
      ],
      "name": "txs",
      "outputs": [
        {
          "name": "_ProductId",
          "type": "uint256"
        },
        {
          "name": "_amount",
          "type": "uint256"
        },
        {
          "name": "_isPaid",
          "type": "bool"
        }
      ],
      "payable": false,
      "stateMutability": "view",
      "type": "function"
    },
    {
      "inputs": [],
      "payable": false,
      "stateMutability": "nonpayable",
      "type": "constructor"
    },
    {
      "anonymous": false,
      "inputs": [
        {
          "indexed": false,
          "name": "id",
          "type": "uint256"
        },
        {
          "indexed": false,
          "name": "success",
          "type": "bool"
        }
      ],
      "name": "deadlineChecked",
      "type": "event"
    },
    {
      "anonymous": false,
      "inputs": [
        {
          "indexed": false,
          "name": "_productId",
          "type": "uint256"
        },
        {
          "indexed": false,
          "name": "_hash",
          "type": "string"
        },
        {
          "indexed": false,
          "name": "_cost",
          "type": "uint256"
        },
        {
          "indexed": false,
          "name": "_goal",
          "type": "uint256"
        },
        {
          "indexed": false,
          "name": "deadline",
          "type": "uint256"
        },
        {
          "indexed": false,
          "name": "producer",
          "type": "address"
        }
      ],
      "name": "productCreated",
      "type": "event"
    },
    {
      "anonymous": false,
      "inputs": [
        {
          "indexed": false,
          "name": "_oldId",
          "type": "uint256"
        },
        {
          "indexed": false,
          "name": "_productId",
          "type": "uint256"
        },
        {
          "indexed": false,
          "name": "_hash",
          "type": "string"
        },
        {
          "indexed": false,
          "name": "_cost",
          "type": "uint256"
        },
        {
          "indexed": false,
          "name": "_goal",
          "type": "uint256"
        },
        {
          "indexed": false,
          "name": "deadline",
          "type": "uint256"
        },
        {
          "indexed": false,
          "name": "producer",
          "type": "address"
        }
      ],
      "name": "productEdited",
      "type": "event"
    },
    {
      "anonymous": false,
      "inputs": [
        {
          "indexed": false,
          "name": "_productId",
          "type": "uint256"
        }
      ],
      "name": "productDeleted",
      "type": "event"
    },
    {
      "anonymous": false,
      "inputs": [
        {
          "indexed": false,
          "name": "TxId",
          "type": "uint256"
        },
        {
          "indexed": false,
          "name": "_ProductId",
          "type": "uint256"
        },
        {
          "indexed": false,
          "name": "customer",
          "type": "address"
        }
      ],
      "name": "TxCreated",
      "type": "event"
    },
    {
      "anonymous": false,
      "inputs": [
        {
          "indexed": false,
          "name": "TxId",
          "type": "uint256"
        },
        {
          "indexed": false,
          "name": "_ProductId",
          "type": "uint256"
        },
        {
          "indexed": false,
          "name": "customer",
          "type": "address"
        }
      ],
      "name": "TxEditted",
      "type": "event"
    },
    {
      "anonymous": false,
      "inputs": [
        {
          "indexed": true,
          "name": "previousOwner",
          "type": "address"
        },
        {
          "indexed": true,
          "name": "newOwner",
          "type": "address"
        }
      ],
      "name": "OwnershipTransferred",
      "type": "event"
    },
    {
      "constant": false,
      "inputs": [
        {
          "name": "_hash",
          "type": "string"
        },
        {
          "name": "_cost",
          "type": "uint256"
        },
        {
          "name": "_goal",
          "type": "uint256"
        },
        {
          "name": "_deadline",
          "type": "uint256"
        }
      ],
      "name": "createproduct",
      "outputs": [],
      "payable": true,
      "stateMutability": "payable",
      "type": "function"
    },
    {
      "constant": false,
      "inputs": [
        {
          "name": "_oldId",
          "type": "uint256"
        },
        {
          "name": "_hash",
          "type": "string"
        },
        {
          "name": "_cost",
          "type": "uint256"
        },
        {
          "name": "_goal",
          "type": "uint256"
        },
        {
          "name": "_deadline",
          "type": "uint256"
        }
      ],
      "name": "editproduct",
      "outputs": [],
      "payable": true,
      "stateMutability": "payable",
      "type": "function"
    },
    {
      "constant": false,
      "inputs": [
        {
          "name": "Id",
          "type": "uint256"
        }
      ],
      "name": "deleteProduct",
      "outputs": [],
      "payable": false,
      "stateMutability": "nonpayable",
      "type": "function"
    },
    {
      "constant": true,
      "inputs": [
        {
          "name": "Id",
          "type": "uint256"
        }
      ],
      "name": "deadlinePass",
      "outputs": [
        {
          "name": "",
          "type": "bool"
        }
      ],
      "payable": false,
      "stateMutability": "view",
      "type": "function"
    },
    {
      "constant": true,
      "inputs": [
        {
          "name": "Id",
          "type": "uint256"
        }
      ],
      "name": "isDeadlineChecked",
      "outputs": [
        {
          "name": "",
          "type": "bool"
        }
      ],
      "payable": false,
      "stateMutability": "view",
      "type": "function"
    },
    {
      "constant": false,
      "inputs": [
        {
          "name": "Id",
          "type": "uint256"
        }
      ],
      "name": "CheckDeadline",
      "outputs": [],
      "payable": false,
      "stateMutability": "nonpayable",
      "type": "function"
    },
    {
      "constant": false,
      "inputs": [
        {
          "name": "_ProductId",
          "type": "uint256"
        },
        {
          "name": "amount",
          "type": "uint256"
        },
        {
          "name": "hash",
          "type": "string"
        }
      ],
      "name": "CreateTx",
      "outputs": [],
      "payable": true,
      "stateMutability": "payable",
      "type": "function"
    },
    {
      "constant": false,
      "inputs": [
        {
          "name": "Id",
          "type": "uint256"
        },
        {
          "name": "TxId",
          "type": "uint256"
        }
      ],
      "name": "CustomerRCVed",
      "outputs": [],
      "payable": false,
      "stateMutability": "nonpayable",
      "type": "function"
    },
    {
      "constant": false,
      "inputs": [
        {
          "name": "_ProductId",
          "type": "uint256"
        },
        {
          "name": "TxId",
          "type": "uint256"
        },
        {
          "name": "amount",
          "type": "uint256"
        },
        {
          "name": "hash",
          "type": "string"
        }
      ],
      "name": "EditTx",
      "outputs": [],
      "payable": true,
      "stateMutability": "payable",
      "type": "function"
    },
    {
      "constant": true,
      "inputs": [
        {
          "name": "Id",
          "type": "uint256"
        }
      ],
      "name": "getproduct",
      "outputs": [
        {
          "name": "",
          "type": "string"
        },
        {
          "name": "",
          "type": "uint256"
        },
        {
          "name": "",
          "type": "uint256"
        },
        {
          "name": "",
          "type": "uint256"
        },
        {
          "name": "",
          "type": "uint256"
        }
      ],
      "payable": false,
      "stateMutability": "view",
      "type": "function"
    },
    {
      "constant": true,
      "inputs": [],
      "name": "getProductLength",
      "outputs": [
        {
          "name": "",
          "type": "uint256"
        }
      ],
      "payable": false,
      "stateMutability": "view",
      "type": "function"
    },
    {
      "constant": true,
      "inputs": [
        {
          "name": "Id",
          "type": "uint256"
        }
      ],
      "name": "gettx",
      "outputs": [
        {
          "name": "",
          "type": "uint256"
        },
        {
          "name": "",
          "type": "uint256"
        },
        {
          "name": "",
          "type": "bool"
        }
      ],
      "payable": false,
      "stateMutability": "view",
      "type": "function"
    },
    {
      "constant": true,
      "inputs": [],
      "name": "getTxLength",
      "outputs": [
        {
          "name": "",
          "type": "uint256"
        }
      ],
      "payable": false,
      "stateMutability": "view",
      "type": "function"
    },
    {
      "constant": true,
      "inputs": [
        {
          "name": "TxId",
          "type": "uint256"
        }
      ],
      "name": "txalive",
      "outputs": [
        {
          "name": "",
          "type": "bool"
        }
      ],
      "payable": false,
      "stateMutability": "view",
      "type": "function"
    }
  ],
  "bytecode": "0x6080604052600060055534801561001557600080fd5b50336000806101000a81548173ffffffffffffffffffffffffffffffffffffffff021916908373ffffffffffffffffffffffffffffffffffffffff1602179055506000809054906101000a900473ffffffffffffffffffffffffffffffffffffffff1673ffffffffffffffffffffffffffffffffffffffff16600073ffffffffffffffffffffffffffffffffffffffff167f8be0079c531659141344cd1fd0a4f28419497f9722a3daafe3b4186f6b6457e060405160405180910390a3613775806100e16000396000f3fe608060405260043610610112576000357c0100000000000000000000000000000000000000000000000000000000900463ffffffff1680631deef430146101175780631efc1c6e146101f057806322e87f64146102435780633d90b892146102965780634e05b9e5146102f7578063715018a6146103325780637acc0b20146103495780638da5cb5b146104245780638f32d59b1461047b57806397043f4d146104aa578063b4a256fb1461058d578063c6e6fbff1461065c578063d25edb7514610687578063e9928df0146106da578063ed90c7b71461071f578063f008ef181461075a578063f2d618191461082a578063f2fde38b14610855578063f5715d56146108a6578063fde997fb14610907575b600080fd5b6101ee6004803603608081101561012d57600080fd5b810190808035906020019064010000000081111561014a57600080fd5b82018360208201111561015c57600080fd5b8035906020019184600183028401116401000000008311171561017e57600080fd5b91908080601f016020809104026020016040519081016040528093929190818152602001838380828437600081840152601f19601f8201169050808301925050505050505091929192908035906020019092919080359060200190929190803590602001909291905050506109e0565b005b3480156101fc57600080fd5b506102296004803603602081101561021357600080fd5b8101908080359060200190929190505050610a9c565b604051808215151515815260200191505060405180910390f35b34801561024f57600080fd5b5061027c6004803603602081101561026657600080fd5b8101908080359060200190929190505050610c0e565b604051808215151515815260200191505060405180910390f35b3480156102a257600080fd5b506102cf600480360360208110156102b957600080fd5b8101908080359060200190929190505050610d8f565b6040518084815260200183815260200182151515158152602001935050505060405180910390f35b34801561030357600080fd5b506103306004803603602081101561031a57600080fd5b8101908080359060200190929190505050610efc565b005b34801561033e57600080fd5b50610347611307565b005b34801561035557600080fd5b506103826004803603602081101561036c57600080fd5b81019080803590602001909291905050506113d9565b604051808060200187815260200186815260200185815260200184815260200183151515158152602001828103825288818151815260200191508051906020019080838360005b838110156103e45780820151818401526020810190506103c9565b50505050905090810190601f1680156104115780820380516001836020036101000a031916815260200191505b5097505050505050505060405180910390f35b34801561043057600080fd5b506104396114c9565b604051808273ffffffffffffffffffffffffffffffffffffffff1673ffffffffffffffffffffffffffffffffffffffff16815260200191505060405180910390f35b34801561048757600080fd5b506104906114f2565b604051808215151515815260200191505060405180910390f35b61058b600480360360a08110156104c057600080fd5b8101908080359060200190929190803590602001906401000000008111156104e757600080fd5b8201836020820111156104f957600080fd5b8035906020019184600183028401116401000000008311171561051b57600080fd5b91908080601f016020809104026020016040519081016040528093929190818152602001838380828437600081840152601f19601f820116905080830192505050505050509192919290803590602001909291908035906020019092919080359060200190929190505050611549565b005b61065a600480360360608110156105a357600080fd5b810190808035906020019092919080359060200190929190803590602001906401000000008111156105d457600080fd5b8201836020820111156105e657600080fd5b8035906020019184600183028401116401000000008311171561060857600080fd5b91908080601f016020809104026020016040519081016040528093929190818152602001838380828437600081840152601f19601f8201169050808301925050505050505091929192905050506118c8565b005b34801561066857600080fd5b50610671611cfb565b6040518082815260200191505060405180910390f35b34801561069357600080fd5b506106c0600480360360208110156106aa57600080fd5b8101908080359060200190929190505050611d08565b604051808215151515815260200191505060405180910390f35b3480156106e657600080fd5b5061071d600480360360408110156106fd57600080fd5b810190808035906020019092919080359060200190929190505050611e81565b005b34801561072b57600080fd5b506107586004803603602081101561074257600080fd5b810190808035906020019092919050505061202b565b005b34801561076657600080fd5b506107936004803603602081101561077d57600080fd5b81019080803590602001909291905050506122f8565b6040518080602001868152602001858152602001848152602001838152602001828103825287818151815260200191508051906020019080838360005b838110156107eb5780820151818401526020810190506107d0565b50505050905090810190601f1680156108185780820380516001836020036101000a031916815260200191505b50965050505050505060405180910390f35b34801561083657600080fd5b5061083f6123be565b6040518082815260200191505060405180910390f35b34801561086157600080fd5b506108a46004803603602081101561087857600080fd5b81019080803573ffffffffffffffffffffffffffffffffffffffff1690602001909291905050506123cb565b005b3480156108b257600080fd5b506108df600480360360208110156108c957600080fd5b81019080803590602001909291905050506123ea565b6040518084815260200183815260200182151515158152602001935050505060405180910390f35b6109de6004803603608081101561091d57600080fd5b810190808035906020019092919080359060200190929190803590602001909291908035906020019064010000000081111561095857600080fd5b82018360208201111561096a57600080fd5b8035906020019184600183028401116401000000008311171561098c57600080fd5b91908080601f016020809104026020016040519081016040528093929190818152602001838380828437600081840152601f19601f820116905080830192505050505050509192919290505050612430565b005b66038d7ea4c68000600283010234141515610a89576040517f08c379a00000000000000000000000000000000000000000000000000000000081526004018080602001828103825260328152602001807f706f436861696e204572726f723a206d7573742072657365727665206578616381526020017f746c79205f676f616c2b322066696e6e6579000000000000000000000000000081525060400191505060405180910390fd5b610a968484848433612acc565b50505050565b60006003805490508211151515610b41576040517f08c379a00000000000000000000000000000000000000000000000000000000081526004018080602001828103825260238152602001807f706f436861696e204572726f723a2070726f64756374204964206e6f7420666f81526020017f756e64000000000000000000000000000000000000000000000000000000000081525060400191505060405180910390fd5b6000600383815481101515610b5257fe5b906000526020600020906006020160030154111515610bd9576040517f08c379a000000000000000000000000000000000000000000000000000000000815260040180806020018281038252601e8152602001807f706f436861696e204572726f723a2070726f647563742064656c65746564000081525060200191505060405180910390fd5b600382815481101515610be857fe5b906000526020600020906006020160050160009054906101000a900460ff169050919050565b600060018054905082101515610c8c576040517f08c379a00000000000000000000000000000000000000000000000000000000081526004018080602001828103825260208152602001807f706f436861696e204572726f723a20747820646f6573206e6f7420657869737481525060200191505060405180910390fd5b6002600083815260200190815260200160002060009054906101000a900473ffffffffffffffffffffffffffffffffffffffff1673ffffffffffffffffffffffffffffffffffffffff163373ffffffffffffffffffffffffffffffffffffffff16141515610d62576040517f08c379a000000000000000000000000000000000000000000000000000000000815260040180806020018281038252601f8152602001807f706f436861696e204572726f723a2043616e6e6f74206163636573732074780081525060200191505060405180910390fd5b6000610d6d83612ce3565b505090506000610d7c82612d32565b5093505050506000811192505050919050565b600080600060018054905084101515610e10576040517f08c379a00000000000000000000000000000000000000000000000000000000081526004018080602001828103825260208152602001807f706f436861696e204572726f723a20747820646f6573206e6f7420657869737481525060200191505060405180910390fd5b6002600085815260200190815260200160002060009054906101000a900473ffffffffffffffffffffffffffffffffffffffff1673ffffffffffffffffffffffffffffffffffffffff163373ffffffffffffffffffffffffffffffffffffffff16141515610ee6576040517f08c379a000000000000000000000000000000000000000000000000000000000815260040180806020018281038252601f8152602001807f706f436861696e204572726f723a2043616e6e6f74206163636573732074780081525060200191505060405180910390fd5b610eef84612ce3565b9250925092509193909250565b6003805490508111151515610f9f576040517f08c379a00000000000000000000000000000000000000000000000000000000081526004018080602001828103825260238152602001807f706f436861696e204572726f723a2070726f64756374204964206e6f7420666f81526020017f756e64000000000000000000000000000000000000000000000000000000000081525060400191505060405180910390fd5b6000600382815481101515610fb057fe5b906000526020600020906006020160030154111515611037576040517f08c379a000000000000000000000000000000000000000000000000000000000815260040180806020018281038252601e8152602001807f706f436861696e204572726f723a2070726f647563742064656c65746564000081525060200191505060405180910390fd5b6000151560038281548110151561104a57fe5b906000526020600020906006020160050160009054906101000a900460ff1615151415156110e0576040517f08c379a000000000000000000000000000000000000000000000000000000000815260040180806020018281038252601f8152602001807f706f436861696e204572726f723a20646561646c696e6520636865636b65640081525060200191505060405180910390fd5b6003818154811015156110ef57fe5b906000526020600020906006020160040154421015151561119e576040517f08c379a00000000000000000000000000000000000000000000000000000000081526004018080602001828103825260268152602001807f706f436861696e204572726f723a20646561646c696e65206973206e6f74207281526020017f656163686564000000000000000000000000000000000000000000000000000081525060400191505060405180910390fd5b3373ffffffffffffffffffffffffffffffffffffffff166108fc66071afd498d00009081150290604051600060405180830381858888f193505050501580156111eb573d6000803e3d6000fd5b5060016003828154811015156111fd57fe5b906000526020600020906006020160050160006101000a81548160ff02191690831515021790555060038181548110151561123457fe5b90600052602060002090600602016003015460038281548110151561125557fe5b90600052602060002090600602016002015410156112bf5761127681612e23565b7f45ab7475d7ebb274c832a428bffa5309fa28274cfa5c825009e5819d29f4454681600060405180838152602001821515151581526020019250505060405180910390a1611304565b7f45ab7475d7ebb274c832a428bffa5309fa28274cfa5c825009e5819d29f4454681600160405180838152602001821515151581526020019250505060405180910390a15b50565b61130f6114f2565b151561131a57600080fd5b600073ffffffffffffffffffffffffffffffffffffffff166000809054906101000a900473ffffffffffffffffffffffffffffffffffffffff1673ffffffffffffffffffffffffffffffffffffffff167f8be0079c531659141344cd1fd0a4f28419497f9722a3daafe3b4186f6b6457e060405160405180910390a360008060006101000a81548173ffffffffffffffffffffffffffffffffffffffff021916908373ffffffffffffffffffffffffffffffffffffffff160217905550565b6003818154811015156113e857fe5b9060005260206000209060060201600091509050806000018054600181600116156101000203166002900480601f0160208091040260200160405190810160405280929190818152602001828054600181600116156101000203166002900480156114945780601f1061146957610100808354040283529160200191611494565b820191906000526020600020905b81548152906001019060200180831161147757829003601f168201915b5050505050908060010154908060020154908060030154908060040154908060050160009054906101000a900460ff16905086565b60008060009054906101000a900473ffffffffffffffffffffffffffffffffffffffff16905090565b60008060009054906101000a900473ffffffffffffffffffffffffffffffffffffffff1673ffffffffffffffffffffffffffffffffffffffff163373ffffffffffffffffffffffffffffffffffffffff1614905090565b6004600086815260200190815260200160002060009054906101000a900473ffffffffffffffffffffffffffffffffffffffff1673ffffffffffffffffffffffffffffffffffffffff163373ffffffffffffffffffffffffffffffffffffffff1614151561161f576040517f08c379a000000000000000000000000000000000000000000000000000000000815260040180806020018281038252601c8152602001807f706f436861696e204572726f723a2063616e6e6f74206163636573730000000081525060200191505060405180910390fd5b66038d7ea4c680006002830102341415156116c8576040517f08c379a00000000000000000000000000000000000000000000000000000000081526004018080602001828103825260338152602001807f706f436861696e204572726f723a2076616c7565206d75737420657175616c2081526020017f77697468205f676f616c2b322066696e6e65790000000000000000000000000081525060400191505060405180910390fd5b6003805490508510151561176a576040517f08c379a00000000000000000000000000000000000000000000000000000000081526004018080602001828103825260278152602001807f706f436861696e204572726f723a2070726f64756374206f6c64204964206e6f81526020017f7420666f756e640000000000000000000000000000000000000000000000000081525060400191505060405180910390fd5b600060038681548110151561177b57fe5b906000526020600020906006020160030154111515611802576040517f08c379a000000000000000000000000000000000000000000000000000000000815260040180806020018281038252601e8152602001807f706f436861696e204572726f723a2070726f647563742064656c65746564000081525060200191505060405180910390fd5b611810858585858533612efc565b606080600061181e88613142565b92509250925060008090505b818110156118bd57838181518110151561184057fe5b9060200190602002015173ffffffffffffffffffffffffffffffffffffffff166108fc66038d7ea4c68000858481518110151561187957fe5b90602001906020020151029081150290604051600060405180830381858888f193505050501580156118af573d6000803e3d6000fd5b50808060010191505061182a565b505050505050505050565b60038054905083101515611944576040517f08c379a000000000000000000000000000000000000000000000000000000000815260040180806020018281038252601a8152602001807f706f436861696e204572726f723a2050726f6475637420444e4500000000000081525060200191505060405180910390fd5b600060038481548110151561195557fe5b9060005260206000209060060201600301541115156119dc576040517f08c379a000000000000000000000000000000000000000000000000000000000815260040180806020018281038252601e8152602001807f706f436861696e204572726f723a2044656c657465642050726f64756374000081525060200191505060405180910390fd5b806040516020018082805190602001908083835b602083101515611a1557805182526020820191506020810190506020830392506119f0565b6001836020036101000a03801982511681845116808217855250505050505090500191505060405160208183030381529060405280519060200120600384815481101515611a5f57fe5b90600052602060002090600602016000016040516020018082805460018160011615610100020316600290048015611ace5780601f10611aac576101008083540402835291820191611ace565b820191906000526020600020905b815481529060010190602001808311611aba575b505091505060405160208183030381529060405280519060200120141515611b5e576040517f08c379a000000000000000000000000000000000000000000000000000000000815260040180806020018281038252601d8152602001807f706f436861696e204572726f723a20636f72727570746564206461746100000081525060200191505060405180910390fd5b600383815481101515611b6d57fe5b90600052602060002090600602016004015442101515611bf5576040517f08c379a000000000000000000000000000000000000000000000000000000000815260040180806020018281038252601e8152602001807f706f436861696e204572726f723a207072652d6f7264657220656e646564000081525060200191505060405180910390fd5b66038d7ea4c6800082600385815481101515611c0d57fe5b906000526020600020906006020160010154020234141515611cbd576040517f08c379a00000000000000000000000000000000000000000000000000000000081526004018080602001828103825260238152602001807f706f436861696e204572726f723a204e6f7420656e6f7567682062616c616e6381526020017f652121000000000000000000000000000000000000000000000000000000000081525060400191505060405180910390fd5b611cc8838333613308565b81600384815481101515611cd857fe5b906000526020600020906006020160020160008282540192505081905550505050565b6000600180549050905090565b60006003805490508211151515611dad576040517f08c379a00000000000000000000000000000000000000000000000000000000081526004018080602001828103825260238152602001807f706f436861696e204572726f723a2070726f64756374204964206e6f7420666f81526020017f756e64000000000000000000000000000000000000000000000000000000000081525060400191505060405180910390fd5b6000600383815481101515611dbe57fe5b906000526020600020906006020160030154111515611e45576040517f08c379a000000000000000000000000000000000000000000000000000000000815260040180806020018281038252601e8152602001807f706f436861696e204572726f723a2070726f647563742064656c65746564000081525060200191505060405180910390fd5b42600383815481101515611e5557fe5b906000526020600020906006020160040154111515611e775760019050611e7c565b600090505b919050565b60001515600182815481101515611e9457fe5b906000526020600020906003020160020160009054906101000a900460ff161515141515611f2a576040517f08c379a00000000000000000000000000000000000000000000000000000000081526004018080602001828103825260198152602001807f706f436861696e204572726f723a20747820697320706169640000000000000081525060200191505060405180910390fd5b60018082815481101515611f3a57fe5b906000526020600020906003020160020160006101000a81548160ff0219169083151502179055506004600083815260200190815260200160002060009054906101000a900473ffffffffffffffffffffffffffffffffffffffff1673ffffffffffffffffffffffffffffffffffffffff166108fc66038d7ea4c68000600385815481101515611fc657fe5b906000526020600020906006020160010154600185815481101515611fe757fe5b90600052602060002090600302016001015402029081150290604051600060405180830381858888f19350505050158015612026573d6000803e3d6000fd5b505050565b600380549050811015156120cd576040517f08c379a00000000000000000000000000000000000000000000000000000000081526004018080602001828103825260238152602001807f706f436861696e204572726f723a2070726f64756374204964206e6f7420666f81526020017f756e64000000000000000000000000000000000000000000000000000000000081525060400191505060405180910390fd5b6004600082815260200190815260200160002060009054906101000a900473ffffffffffffffffffffffffffffffffffffffff1673ffffffffffffffffffffffffffffffffffffffff163373ffffffffffffffffffffffffffffffffffffffff161415156121a3576040517f08c379a000000000000000000000000000000000000000000000000000000000815260040180806020018281038252601c8152602001807f706f436861696e204572726f723a2063616e6e6f74206163636573730000000081525060200191505060405180910390fd5b60006003828154811015156121b457fe5b90600052602060002090600602016003015411151561223b576040517f08c379a000000000000000000000000000000000000000000000000000000000815260040180806020018281038252601e8152602001807f706f436861696e204572726f723a2070726f647563742064656c65746564000081525060200191505060405180910390fd5b6122448161345b565b606080600061225284613142565b92509250925060008090505b818110156122f157838181518110151561227457fe5b9060200190602002015173ffffffffffffffffffffffffffffffffffffffff166108fc66038d7ea4c6800085848151811015156122ad57fe5b90602001906020020151029081150290604051600060405180830381858888f193505050501580156122e3573d6000803e3d6000fd5b50808060010191505061225e565b5050505050565b6060600080600080600380549050861015156123a2576040517f08c379a00000000000000000000000000000000000000000000000000000000081526004018080602001828103825260258152602001807f706f436861696e204572726f723a2070726f6475637420646f6573206e6f742081526020017f657869737400000000000000000000000000000000000000000000000000000081525060400191505060405180910390fd5b6123ab86612d32565b9450945094509450945091939590929450565b6000600380549050905090565b6123d36114f2565b15156123de57600080fd5b6123e7816134bb565b50565b6001818154811015156123f957fe5b90600052602060002090600302016000915090508060000154908060010154908060020160009054906101000a900460ff16905083565b600380549050841015156124d2576040517f08c379a00000000000000000000000000000000000000000000000000000000081526004018080602001828103825260258152602001807f706f436861696e204572726f723a2070726f6475637420646f6573206e6f742081526020017f657869737400000000000000000000000000000000000000000000000000000081525060400191505060405180910390fd5b836001848154811015156124e257fe5b90600052602060002090600302016000015414151561258f576040517f08c379a00000000000000000000000000000000000000000000000000000000081526004018080602001828103825260228152602001807f706f436861696e204572726f723a2070726f64756374206964206d69736d617481526020017f636800000000000000000000000000000000000000000000000000000000000081525060400191505060405180910390fd5b3373ffffffffffffffffffffffffffffffffffffffff166002600085815260200190815260200160002060009054906101000a900473ffffffffffffffffffffffffffffffffffffffff1673ffffffffffffffffffffffffffffffffffffffff16141515612665576040517f08c379a000000000000000000000000000000000000000000000000000000000815260040180806020018281038252601c8152602001807f706f436861696e204572726f723a20636f6e6e6f74206163636573730000000081525060200191505060405180910390fd5b600060038581548110151561267657fe5b9060005260206000209060060201600301541115156126fd576040517f08c379a000000000000000000000000000000000000000000000000000000000815260040180806020018281038252601e8152602001807f706f436861696e204572726f723a2064656c657465642070726f64756374000081525060200191505060405180910390fd5b806040516020018082805190602001908083835b6020831015156127365780518252602082019150602081019050602083039250612711565b6001836020036101000a0380198251168184511680821785525050505050509050019150506040516020818303038152906040528051906020012060038581548110151561278057fe5b906000526020600020906006020160000160405160200180828054600181600116156101000203166002900480156127ef5780601f106127cd5761010080835404028352918201916127ef565b820191906000526020600020905b8154815290600101906020018083116127db575b50509150506040516020818303038152906040528051906020012014151561287f576040517f08c379a000000000000000000000000000000000000000000000000000000000815260040180806020018281038252601d8152602001807f706f436861696e204572726f723a20636f72727570746564206461746100000081525060200191505060405180910390fd5b60038481548110151561288e57fe5b90600052602060002090600602016004015442101515612916576040517f08c379a000000000000000000000000000000000000000000000000000000000815260040180806020018281038252601e8152602001807f706f436861696e204572726f723a207072652d6f7264657220656e646564000081525060200191505060405180910390fd5b66038d7ea4c680008260038681548110151561292e57fe5b9060005260206000209060060201600101540202341415156129de576040517f08c379a00000000000000000000000000000000000000000000000000000000081526004018080602001828103825260238152602001807f706f436861696e204572726f723a204e6f7420656e6f7567682062616c616e6381526020017f652121000000000000000000000000000000000000000000000000000000000081525060400191505060405180910390fd5b60006129e984612ce3565b509150506129f784846135b5565b3373ffffffffffffffffffffffffffffffffffffffff166108fc66038d7ea4c68000600388815481101515612a2857fe5b9060005260206000209060060201600101548402029081150290604051600060405180830381858888f19350505050158015612a68573d6000803e3d6000fd5b5080600386815481101515612a7957fe5b90600052602060002090600602016002016000828254039250508190555082600386815481101515612aa757fe5b9060005260206000209060060201600201600082825401925050819055505050505050565b60006001600360c0604051908101604052808981526020018881526020016000815260200187815260200186815260200160001515815250908060018154018082558091505090600182039060005260206000209060060201600090919290919091506000820151816000019080519060200190612b4b9291906136a4565b506020820151816001015560408201518160020155606082015181600301556080820151816004015560a08201518160050160006101000a81548160ff0219169083151502179055505050039050816004600083815260200190815260200160002060006101000a81548173ffffffffffffffffffffffffffffffffffffffff021916908373ffffffffffffffffffffffffffffffffffffffff1602179055507f5ddce98248c321e823dcc1ddd441e876da418c9b523d1cdbb9e9e935647e705381878787878760405180878152602001806020018681526020018581526020018481526020018373ffffffffffffffffffffffffffffffffffffffff1673ffffffffffffffffffffffffffffffffffffffff168152602001828103825287818151815260200191508051906020019080838360005b83811015612c9c578082015181840152602081019050612c81565b50505050905090810190601f168015612cc95780820380516001836020036101000a031916815260200191505b5097505050505050505060405180910390a1505050505050565b600080600080600185815481101515612cf857fe5b90600052602060002090600302019050806000015481600101548260020160009054906101000a900460ff16935093509350509193909250565b60606000806000806000600387815481101515612d4b57fe5b90600052602060002090600602019050806000018160010154826002015483600301548460040154848054600181600116156101000203166002900480601f016020809104026020016040519081016040528092919081815260200182805460018160011615610100020316600290048015612e085780601f10612ddd57610100808354040283529160200191612e08565b820191906000526020600020905b815481529060010190602001808311612deb57829003601f168201915b50505050509450955095509550955095505091939590929450565b6060806000612e3184613142565b92509250925060008090505b81811015612ef5578381815181101515612e5357fe5b9060200190602002015173ffffffffffffffffffffffffffffffffffffffff166108fc66038d7ea4c680006001600389815481101515612e8f57fe5b9060005260206000209060060201600101548786815181101515612eaf57fe5b906020019060200201510201029081150290604051600060405180830381858888f19350505050158015612ee7573d6000803e3d6000fd5b508080600101915050612e3d565b5050505050565b6000600387815481101515612f0d57fe5b90600052602060002090600602016003018190555060006001600360c0604051908101604052808981526020018881526020016000815260200187815260200186815260200160001515815250908060018154018082558091505090600182039060005260206000209060060201600090919290919091506000820151816000019080519060200190612fa19291906136a4565b506020820151816001015560408201518160020155606082015181600301556080820151816004015560a08201518160050160006101000a81548160ff0219169083151502179055505050039050816004600083815260200190815260200160002060006101000a81548173ffffffffffffffffffffffffffffffffffffffff021916908373ffffffffffffffffffffffffffffffffffffffff1602179055507f2a7aa6d6df3ba5024a896f502e4c7078ae6024911bb737e96aa00dc60920fc808782888888888860405180888152602001878152602001806020018681526020018581526020018481526020018373ffffffffffffffffffffffffffffffffffffffff1673ffffffffffffffffffffffffffffffffffffffff168152602001828103825287818151815260200191508051906020019080838360005b838110156130f95780820151818401526020810190506130de565b50505050905090810190601f1680156131265780820380516001836020036101000a031916815260200191505b509850505050505050505060405180910390a150505050505050565b6060806000606060018054905060405190808252806020026020018201604052801561317d5781602001602082028038833980820191505090505b50905060606001805490506040519080825280602002602001820160405280156131b65781602001602082028038833980820191505090505b509050600080905060008090505b6001805490508110156132f457876001828154811015156131e157fe5b9060005260206000209060030201600001541480156132205750600060018281548110151561320c57fe5b906000526020600020906003020160010154115b156132e75760018181548110151561323457fe5b906000526020600020906003020160010154838381518110151561325457fe5b90602001906020020181815250506002600082815260200190815260200160002060009054906101000a900473ffffffffffffffffffffffffffffffffffffffff1684838151811015156132a457fe5b9060200190602002019073ffffffffffffffffffffffffffffffffffffffff16908173ffffffffffffffffffffffffffffffffffffffff16815250506001820191505b80806001019150506131c4565b508282829550955095505050509193909250565b60006001806060604051908101604052808781526020018681526020016000151581525090806001815401808255809150509060018203906000526020600020906003020160009091929091909150600082015181600001556020820151816001015560408201518160020160006101000a81548160ff0219169083151502179055505050039050816002600083815260200190815260200160002060006101000a81548173ffffffffffffffffffffffffffffffffffffffff021916908373ffffffffffffffffffffffffffffffffffffffff1602179055507f9bd01586839227759b1ae3961fb74c90280f99875d71c0b274c01196d29b0585818584604051808481526020018381526020018273ffffffffffffffffffffffffffffffffffffffff1673ffffffffffffffffffffffffffffffffffffffff168152602001935050505060405180910390a150505050565b600060038281548110151561346c57fe5b9060005260206000209060060201600301819055507fb9cf51de0e349fe22cdf4be36898ccd86f49c14f931aaf57f3c2d617821d1118816040518082815260200191505060405180910390a150565b600073ffffffffffffffffffffffffffffffffffffffff168173ffffffffffffffffffffffffffffffffffffffff16141515156134f757600080fd5b8073ffffffffffffffffffffffffffffffffffffffff166000809054906101000a900473ffffffffffffffffffffffffffffffffffffffff1673ffffffffffffffffffffffffffffffffffffffff167f8be0079c531659141344cd1fd0a4f28419497f9722a3daafe3b4186f6b6457e060405160405180910390a3806000806101000a81548173ffffffffffffffffffffffffffffffffffffffff021916908373ffffffffffffffffffffffffffffffffffffffff16021790555050565b806001838154811015156135c557fe5b9060005260206000209060030201600101819055507fcd83c08f2cbb9ca9a66bec5ad542906adaec8afaf65657b417d52f2f852cae2b8260018481548110151561360b57fe5b9060005260206000209060030201600001546002600086815260200190815260200160002060009054906101000a900473ffffffffffffffffffffffffffffffffffffffff16604051808481526020018381526020018273ffffffffffffffffffffffffffffffffffffffff1673ffffffffffffffffffffffffffffffffffffffff168152602001935050505060405180910390a15050565b828054600181600116156101000203166002900490600052602060002090601f016020900481019282601f106136e557805160ff1916838001178555613713565b82800160010185558215613713579182015b828111156137125782518255916020019190600101906136f7565b5b5090506137209190613724565b5090565b61374691905b8082111561374257600081600090555060010161372a565b5090565b9056fea165627a7a72305820f8d7629c03bad1833f28b44c6f548b1187f12b1a34e401b18e44b5764724c9e40029",
  "source": "pragma solidity >=0.4.21 <0.6.0;\nimport \"./product.sol\";\nimport \"./Transaction.sol\";\n\ncontract poChain is Transaction, product {\n\n    uint randNounce = 0;\n    constructor() public {\n\n    }\n    //Product here\n    /*********************************************************\n    *********************************************************/\n    event deadlineChecked(uint id, bool success); \n\n    function createproduct(string memory _hash, uint _cost, uint _goal, uint _deadline) public payable {\n        require(msg.value == ((_goal + 2) * (1 finney)), \"poChain Error: must reserve exactly _goal+2 finney\");\n        _createproduct(_hash, _cost, _goal, _deadline, msg.sender);\n    }\n\n    function editproduct(uint _oldId, string memory _hash, uint _cost, uint _goal, uint _deadline) public payable {\n        require(msg.sender == Id2Owner[_oldId], \"poChain Error: cannot access\");\n        require(msg.value == (_goal+2)*(1 finney), \"poChain Error: value must equal with _goal+2 finney\");\n        require(_oldId < products.length, \"poChain Error: product old Id not found\");\n        require(products[_oldId]._goal > 0, \"poChain Error: product deleted\");\n        _editproduct(_oldId, _hash, _cost, _goal, _deadline, msg.sender);\n        (address payable[] memory Found, uint[] memory Amount, uint len) = _GoThoughTxById(_oldId);\n        for(uint i = 0; i < len; i++) {\n            Found[i].transfer(Amount[i]*1 finney);\n        }\n    }\n\n    function deleteProduct(uint Id) public {\n        require(Id < products.length, \"poChain Error: product Id not found\");\n        require(msg.sender == Id2Owner[Id], \"poChain Error: cannot access\");\n        require(products[Id]._goal > 0, \"poChain Error: product deleted\");\n        _deleteproduct(Id);\n        (address payable[] memory Found, uint[] memory Amount, uint len) = _GoThoughTxById(Id);\n        for(uint i = 0; i < len; i++) {\n            Found[i].transfer(Amount[i]*1 finney);\n        }\n    }\n\n    function deadlinePass(uint Id) public view returns(bool) {\n        require(Id <= products.length, \"poChain Error: product Id not found\");\n        require(products[Id]._goal > 0, \"poChain Error: product deleted\");\n        if(products[Id]._deadline <= now)\n            return true;\n        return false;\n    }\n\n    function isDeadlineChecked(uint Id) public view returns(bool) {\n        require(Id <= products.length, \"poChain Error: product Id not found\");\n        require(products[Id]._goal > 0, \"poChain Error: product deleted\");\n        return products[Id]._deadlinecheck;\n    }\n\n    function CheckDeadline(uint Id) public {\n        require(Id <= products.length, \"poChain Error: product Id not found\");\n        require(products[Id]._goal > 0, \"poChain Error: product deleted\");\n        require(products[Id]._deadlinecheck == false, \"poChain Error: deadline checked\");\n        require(now >= products[Id]._deadline, \"poChain Error: deadline is not reached\");\n        msg.sender.transfer(2 finney);\n        products[Id]._deadlinecheck = true;\n        if(products[Id]._state < products[Id]._goal) {\n            _targetfailed(Id);\n            emit deadlineChecked(Id, false);\n        } else {\n            emit deadlineChecked(Id, true);\n        }\n    }\n\n    function _targetfailed(uint Id) private {\n        (address payable[] memory Found, uint[] memory Amount, uint len) = _GoThoughTxById(Id);\n        for(uint i = 0; i < len; i++) {\n            Found[i].transfer((Amount[i]*products[Id]._cost+1)*1 finney);\n        }\n    }\n\n    //Tx here\n    /*********************************************************\n    *********************************************************/\n    function CreateTx(uint _ProductId,uint amount, string memory hash) public payable {\n        require(_ProductId < products.length, \"poChain Error: Product DNE\");\n        require(products[_ProductId]._goal > 0, \"poChain Error: Deleted Product\");\n        require(keccak256(abi.encodePacked(products[_ProductId]._hash)) == keccak256(abi.encodePacked(hash)), \"poChain Error: corrupted data\");\n        require(now < products[_ProductId]._deadline, \"poChain Error: pre-order ended\");\n        require(msg.value == products[_ProductId]._cost * amount * 1 finney, \"poChain Error: Not enough balance!!\");\n        _createtx(_ProductId, amount, msg.sender);\n        products[_ProductId]._state += amount;\n\n    }\n\n    function CustomerRCVed(uint Id, uint TxId) public {\n        require(txs[TxId]._isPaid == false, \"poChain Error: tx is paid\");\n        txs[TxId]._isPaid = true;\n        Id2Owner[Id].transfer((txs[TxId]._amount*products[Id]._cost)*1 finney);\n    }\n\n    function EditTx(uint _ProductId, uint TxId ,uint amount, string memory hash) public payable {\n        require(_ProductId < products.length, \"poChain Error: product does not exist\");\n        require(txs[TxId]._ProductId == _ProductId, \"poChain Error: product id mismatch\");\n        require(Tx2Customer[TxId] == msg.sender, \"poChain Error: connot access\");\n        require(products[_ProductId]._goal > 0, \"poChain Error: deleted product\");\n        require(keccak256(abi.encodePacked(products[_ProductId]._hash)) == keccak256(abi.encodePacked(hash)), \"poChain Error: corrupted data\");\n        require(now < products[_ProductId]._deadline, \"poChain Error: pre-order ended\");\n        require(msg.value == products[_ProductId]._cost * amount * 1 finney, \"poChain Error: Not enough balance!!\");\n        (,uint oldamount,) = _gettx(TxId);\n        _edittx(TxId, amount);\n        msg.sender.transfer(oldamount*products[_ProductId]._cost*1 finney);\n        products[_ProductId]._state -= oldamount;\n        products[_ProductId]._state += amount;\n    }\n\n    function getproduct(uint Id) public view returns(string memory, uint, uint, uint, uint) {\n        require(Id  < products.length, \"poChain Error: product does not exist\");\n        return(_getproduct(Id));\n        // return hash, cost, state, goal, deadline\n    }\n\n    function getProductLength() public view returns(uint) {\n        return products.length;\n    }\n\n    function gettx(uint Id) public view returns(uint, uint, bool) {\n        require(Id < txs.length, \"poChain Error: tx does not exist\");\n        require(msg.sender == Tx2Customer[Id], \"poChain Error: Cannot access tx\");\n        return _gettx(Id);\n        // return productid, amount, ispaid\n    }\n\n    function getTxLength() public view returns(uint) {\n        return txs.length;\n    }\n\n    function txalive(uint TxId) public view returns(bool) {\n        require(TxId < txs.length, \"poChain Error: tx does not exist\");\n        require(msg.sender == Tx2Customer[TxId], \"poChain Error: Cannot access tx\");\n        (uint productId,,) = _gettx(TxId);\n        (,,, uint goal,) = _getproduct(productId);\n        return (goal > 0);\n    }\n}\n",
  "sourcePath": "/Users/karl/Desktop/pochain/contracts/poChain.sol",
  "compiler": {
    "name": "solc",
    "version": "0.5.0+commit.1d4f565a.Emscripten.clang"
  },
  "schemaVersion": "3.0.9",
  "updatedAt": "2019-06-07T14:23:10.788Z",
  "devdoc": {
    "methods": {
      "isOwner()": {
        "return": "true if `msg.sender` is the owner of the contract."
      },
      "owner()": {
        "return": "the address of the owner."
      },
      "renounceOwnership()": {
        "details": "Allows the current owner to relinquish control of the contract."
      },
      "transferOwnership(address)": {
        "details": "Allows the current owner to transfer control of the contract to a newOwner.",
        "params": {
          "newOwner": "The address to transfer ownership to."
        }
      }
    }
  },
  "userdoc": {
    "methods": {
      "CreateTx(uint256,uint256,string)": {
        "notice": "***************************************************************************************************************"
      },
      "renounceOwnership()": {
        "notice": "Renouncing to ownership will leave the contract without an owner. It will not be possible to call the functions with the `onlyOwner` modifier anymore."
      }
    }
  }
}