{
  "contractName": "product",
  "abi": [
    {
      "constant": true,
      "inputs": [
        {
          "name": "",
          "type": "uint256"
        }
      ],
      "name": "products",
      "outputs": [
        {
          "name": "_hash",
          "type": "string"
        },
        {
          "name": "_cost",
          "type": "uint256"
        },
        {
          "name": "_state",
          "type": "uint256"
        }
      ],
      "payable": false,
      "stateMutability": "view",
      "type": "function"
    },
    {
      "constant": true,
      "inputs": [
        {
          "name": "",
          "type": "uint256"
        }
      ],
      "name": "txs",
      "outputs": [
        {
          "name": "_ProductId",
          "type": "uint256"
        }
      ],
      "payable": false,
      "stateMutability": "view",
      "type": "function"
    },
    {
      "inputs": [],
      "payable": false,
      "stateMutability": "nonpayable",
      "type": "constructor"
    },
    {
      "anonymous": false,
      "inputs": [
        {
          "indexed": false,
          "name": "_productId",
          "type": "uint256"
        },
        {
          "indexed": false,
          "name": "_hash",
          "type": "string"
        },
        {
          "indexed": false,
          "name": "_cost",
          "type": "uint256"
        },
        {
          "indexed": false,
          "name": "_state",
          "type": "uint256"
        }
      ],
      "name": "productCreated",
      "type": "event"
    },
    {
      "constant": false,
      "inputs": [
        {
          "name": "_hash",
          "type": "string"
        },
        {
          "name": "_cost",
          "type": "uint256"
        },
        {
          "name": "_state",
          "type": "uint256"
        }
      ],
      "name": "createproduct",
      "outputs": [
        {
          "name": "",
          "type": "uint256"
        }
      ],
      "payable": false,
      "stateMutability": "nonpayable",
      "type": "function"
    }
  ],
  "bytecode": "0x6080604052600060045534801561001557600080fd5b506105a2806100256000396000f3fe608060405260043610610057576000357c0100000000000000000000000000000000000000000000000000000000900463ffffffff168063559679031461005c5780637acc0b2014610138578063f5715d56146101fa575b600080fd5b34801561006857600080fd5b506101366004803603606081101561007f57600080fd5b810190808035906020019064010000000081111561009c57600080fd5b8201836020820111156100ae57600080fd5b803590602001918460018302840111640100000000831117156100d057600080fd5b91908080601f016020809104026020016040519081016040528093929190818152602001838380828437600081840152601f19601f8201169050808301925050505050505091929192908035906020019092919080359060200190929190505050610249565b005b34801561014457600080fd5b506101716004803603602081101561015b57600080fd5b81019080803590602001909291905050506103d7565b6040518080602001848152602001838152602001828103825285818151815260200191508051906020019080838360005b838110156101bd5780820151818401526020810190506101a2565b50505050905090810190601f1680156101ea5780820380516001836020036101000a031916815260200191505b5094505050505060405180910390f35b34801561020657600080fd5b506102336004803603602081101561021d57600080fd5b81019080803590602001909291905050506104a8565b6040518082815260200191505060405180910390f35b600060016002606060405190810160405280878152602001868152602001858152509080600181540180825580915050906001820390600052602060002090600302016000909192909190915060008201518160000190805190602001906102b29291906104d1565b50602082015181600101556040820151816002015550500390503360008083815260200190815260200160002060006101000a81548173ffffffffffffffffffffffffffffffffffffffff021916908373ffffffffffffffffffffffffffffffffffffffff1602179055507f7913f9edb8cf2f2ec0310edd20847a0b68e261abd30426153deb6e0b3ad6f0a1818585856040518085815260200180602001848152602001838152602001828103825285818151815260200191508051906020019080838360005b83811015610394578082015181840152602081019050610379565b50505050905090810190601f1680156103c15780820380516001836020036101000a031916815260200191505b509550505050505060405180910390a150505050565b6002818154811015156103e657fe5b9060005260206000209060030201600091509050806000018054600181600116156101000203166002900480601f0160208091040260200160405190810160405280929190818152602001828054600181600116156101000203166002900480156104925780601f1061046757610100808354040283529160200191610492565b820191906000526020600020905b81548152906001019060200180831161047557829003601f168201915b5050505050908060010154908060020154905083565b6003818154811015156104b757fe5b906000526020600020016000915090508060000154905081565b828054600181600116156101000203166002900490600052602060002090601f016020900481019282601f1061051257805160ff1916838001178555610540565b82800160010185558215610540579182015b8281111561053f578251825591602001919060010190610524565b5b50905061054d9190610551565b5090565b61057391905b8082111561056f576000816000905550600101610557565b5090565b9056fea165627a7a72305820f00e87c0a2834461fc616745095d762b30927e38260b13ab785a5a4049a49feb0029",
  "source": "pragma solidity >=0.4.21 <0.6.0;\nimport \"./poChain.sol\";\n\ncontract product is poChain {\n\n    constructor() public {\n    }\n    event productCreated(uint _productId, string _hash, uint _cost, uint _state);\n    function createproduct(string memory _hash, uint _cost, uint _state) public {\n        uint id = products.push(Product(_hash, _cost,_state))-1;\n        Id2Owner[id] = msg.sender;\n        emit productCreated(id, _hash, _cost, _state);\n    }\n\n}\n",
  "sourcePath": "/Users/karl/Desktop/pochain/contracts/product.sol",
  "compiler": {
    "name": "solc",
    "version": "0.5.0+commit.1d4f565a.Emscripten.clang"
  },
  "schemaVersion": "3.0.9",
  "updatedAt": "2019-05-28T07:09:12.491Z",
  "devdoc": {
    "methods": {}
  },
  "userdoc": {
    "methods": {}
  }
}