{
  "contractName": "Transaction",
  "abi": [
    {
      "constant": false,
      "inputs": [],
      "name": "renounceOwnership",
      "outputs": [],
      "payable": false,
      "stateMutability": "nonpayable",
      "type": "function"
    },
    {
      "constant": true,
      "inputs": [],
      "name": "owner",
      "outputs": [
        {
          "name": "",
          "type": "address"
        }
      ],
      "payable": false,
      "stateMutability": "view",
      "type": "function"
    },
    {
      "constant": true,
      "inputs": [],
      "name": "isOwner",
      "outputs": [
        {
          "name": "",
          "type": "bool"
        }
      ],
      "payable": false,
      "stateMutability": "view",
      "type": "function"
    },
    {
      "constant": false,
      "inputs": [
        {
          "name": "newOwner",
          "type": "address"
        }
      ],
      "name": "transferOwnership",
      "outputs": [],
      "payable": false,
      "stateMutability": "nonpayable",
      "type": "function"
    },
    {
      "constant": true,
      "inputs": [
        {
          "name": "",
          "type": "uint256"
        }
      ],
      "name": "txs",
      "outputs": [
        {
          "name": "_ProductId",
          "type": "uint256"
        },
        {
          "name": "_amount",
          "type": "uint256"
        },
        {
          "name": "_isPaid",
          "type": "bool"
        }
      ],
      "payable": false,
      "stateMutability": "view",
      "type": "function"
    },
    {
      "inputs": [],
      "payable": false,
      "stateMutability": "nonpayable",
      "type": "constructor"
    },
    {
      "anonymous": false,
      "inputs": [
        {
          "indexed": false,
          "name": "TxId",
          "type": "uint256"
        },
        {
          "indexed": false,
          "name": "_ProductId",
          "type": "uint256"
        },
        {
          "indexed": false,
          "name": "customer",
          "type": "address"
        }
      ],
      "name": "TxCreated",
      "type": "event"
    },
    {
      "anonymous": false,
      "inputs": [
        {
          "indexed": false,
          "name": "TxId",
          "type": "uint256"
        },
        {
          "indexed": false,
          "name": "_ProductId",
          "type": "uint256"
        },
        {
          "indexed": false,
          "name": "customer",
          "type": "address"
        }
      ],
      "name": "TxEditted",
      "type": "event"
    },
    {
      "anonymous": false,
      "inputs": [
        {
          "indexed": true,
          "name": "previousOwner",
          "type": "address"
        },
        {
          "indexed": true,
          "name": "newOwner",
          "type": "address"
        }
      ],
      "name": "OwnershipTransferred",
      "type": "event"
    }
  ],
  "bytecode": "0x608060405234801561001057600080fd5b50336000806101000a81548173ffffffffffffffffffffffffffffffffffffffff021916908373ffffffffffffffffffffffffffffffffffffffff1602179055506000809054906101000a900473ffffffffffffffffffffffffffffffffffffffff1673ffffffffffffffffffffffffffffffffffffffff16600073ffffffffffffffffffffffffffffffffffffffff167f8be0079c531659141344cd1fd0a4f28419497f9722a3daafe3b4186f6b6457e060405160405180910390a361049e806100dc6000396000f3fe60806040526004361061006d576000357c0100000000000000000000000000000000000000000000000000000000900463ffffffff168063715018a6146100725780638da5cb5b146100895780638f32d59b146100e0578063f2fde38b1461010f578063f5715d5614610160575b600080fd5b34801561007e57600080fd5b506100876101c1565b005b34801561009557600080fd5b5061009e610293565b604051808273ffffffffffffffffffffffffffffffffffffffff1673ffffffffffffffffffffffffffffffffffffffff16815260200191505060405180910390f35b3480156100ec57600080fd5b506100f56102bc565b604051808215151515815260200191505060405180910390f35b34801561011b57600080fd5b5061015e6004803603602081101561013257600080fd5b81019080803573ffffffffffffffffffffffffffffffffffffffff169060200190929190505050610313565b005b34801561016c57600080fd5b506101996004803603602081101561018357600080fd5b8101908080359060200190929190505050610332565b6040518084815260200183815260200182151515158152602001935050505060405180910390f35b6101c96102bc565b15156101d457600080fd5b600073ffffffffffffffffffffffffffffffffffffffff166000809054906101000a900473ffffffffffffffffffffffffffffffffffffffff1673ffffffffffffffffffffffffffffffffffffffff167f8be0079c531659141344cd1fd0a4f28419497f9722a3daafe3b4186f6b6457e060405160405180910390a360008060006101000a81548173ffffffffffffffffffffffffffffffffffffffff021916908373ffffffffffffffffffffffffffffffffffffffff160217905550565b60008060009054906101000a900473ffffffffffffffffffffffffffffffffffffffff16905090565b60008060009054906101000a900473ffffffffffffffffffffffffffffffffffffffff1673ffffffffffffffffffffffffffffffffffffffff163373ffffffffffffffffffffffffffffffffffffffff1614905090565b61031b6102bc565b151561032657600080fd5b61032f81610378565b50565b60018181548110151561034157fe5b90600052602060002090600302016000915090508060000154908060010154908060020160009054906101000a900460ff16905083565b600073ffffffffffffffffffffffffffffffffffffffff168173ffffffffffffffffffffffffffffffffffffffff16141515156103b457600080fd5b8073ffffffffffffffffffffffffffffffffffffffff166000809054906101000a900473ffffffffffffffffffffffffffffffffffffffff1673ffffffffffffffffffffffffffffffffffffffff167f8be0079c531659141344cd1fd0a4f28419497f9722a3daafe3b4186f6b6457e060405160405180910390a3806000806101000a81548173ffffffffffffffffffffffffffffffffffffffff021916908373ffffffffffffffffffffffffffffffffffffffff1602179055505056fea165627a7a723058200d1015363702bf94d637140eed932b1fdadec540baceaaeaf0b4eda50d9cfa2c0029",
  "source": "pragma solidity >=0.4.21 <0.6.0;\n//import \"./poChain.sol\";\nimport \"./Ownable.sol\";\n\ncontract Transaction is Ownable {\n\n    constructor() public {\n    }\n\n    struct transaction {\n        uint _ProductId;\n        uint _amount;\n        bool _isPaid;\n    }\n\n    transaction[] public txs;\n\n    mapping (uint => address payable) Tx2Customer;\n\n    event TxCreated(uint TxId, uint _ProductId, address customer);\n    event TxEditted(uint TxId, uint _ProductId, address customer);\n\n    function _createtx(uint _ProductId, uint amount, address payable customer) internal{\n        uint id = txs.push(transaction(_ProductId, amount, false))-1;\n        Tx2Customer[id] = customer;\n        emit TxCreated(id, _ProductId, customer);\n    }\n\n    function _GoThoughTxById(uint ProductId) internal view returns(address payable[] memory, uint[] memory, uint len) {\n        address payable[] memory addresses = new address payable[](txs.length);\n        uint[] memory amounts = new uint[](txs.length);\n        uint length = 0;\n        for (uint i = 0; i < txs.length; i++) {\n            if (txs[i]._ProductId == ProductId && txs[i]._amount > 0) {\n                amounts[length] = txs[i]._amount;\n                addresses[length] = Tx2Customer[i];\n                length = length + 1;\n            }\n        }\n        return(addresses, amounts, length);\n    }\n\n    function _edittx(uint Id, uint amount) internal {\n        txs[Id]._amount = amount;\n        emit TxEditted(Id, txs[Id]._ProductId, Tx2Customer[Id]);\n    }\n\n    function _gettx(uint Id) internal view returns (uint, uint, bool) {\n        transaction storage asked_tx = txs[Id];\n        return  (asked_tx._ProductId, asked_tx._amount, asked_tx._isPaid);\n    }\n\n}",
  "sourcePath": "/Users/karl/Desktop/pochain/contracts/Transaction.sol",
  "compiler": {
    "name": "solc",
    "version": "0.5.0+commit.1d4f565a.Emscripten.clang"
  },
  "schemaVersion": "3.0.9",
  "updatedAt": "2019-06-24T05:16:07.088Z",
  "devdoc": {
    "methods": {
      "isOwner()": {
        "return": "true if `msg.sender` is the owner of the contract."
      },
      "owner()": {
        "return": "the address of the owner."
      },
      "renounceOwnership()": {
        "details": "Allows the current owner to relinquish control of the contract."
      },
      "transferOwnership(address)": {
        "details": "Allows the current owner to transfer control of the contract to a newOwner.",
        "params": {
          "newOwner": "The address to transfer ownership to."
        }
      }
    }
  },
  "userdoc": {
    "methods": {
      "renounceOwnership()": {
        "notice": "Renouncing to ownership will leave the contract without an owner. It will not be possible to call the functions with the `onlyOwner` modifier anymore."
      }
    }
  }
}