{
  "contractName": "tx",
  "abi": [
    {
      "constant": true,
      "inputs": [
        {
          "name": "",
          "type": "uint256"
        }
      ],
      "name": "products",
      "outputs": [
        {
          "name": "_hash",
          "type": "string"
        },
        {
          "name": "_cost",
          "type": "uint256"
        },
        {
          "name": "_state",
          "type": "uint256"
        }
      ],
      "payable": false,
      "stateMutability": "view",
      "type": "function"
    },
    {
      "constant": true,
      "inputs": [
        {
          "name": "",
          "type": "uint256"
        }
      ],
      "name": "txs",
      "outputs": [
        {
          "name": "_ProductId",
          "type": "uint256"
        }
      ],
      "payable": false,
      "stateMutability": "view",
      "type": "function"
    },
    {
      "inputs": [],
      "payable": false,
      "stateMutability": "nonpayable",
      "type": "constructor"
    },
    {
      "anonymous": false,
      "inputs": [
        {
          "indexed": false,
          "name": "TxId",
          "type": "uint256"
        },
        {
          "indexed": false,
          "name": "_ProductId",
          "type": "uint256"
        },
        {
          "indexed": false,
          "name": "addr",
          "type": "address"
        }
      ],
      "name": "TxCreated",
      "type": "event"
    },
    {
      "constant": false,
      "inputs": [
        {
          "name": "_ProductId",
          "type": "uint256"
        }
      ],
      "name": "CreateTx",
      "outputs": [],
      "payable": true,
      "stateMutability": "payable",
      "type": "function"
    }
  ],
  "bytecode": "0x6080604052600060045534801561001557600080fd5b506103e2806100256000396000f3fe608060405260043610610057576000357c0100000000000000000000000000000000000000000000000000000000900463ffffffff1680637acc0b201461005c578063f5715d561461011e578063f777cfb71461016d575b600080fd5b34801561006857600080fd5b506100956004803603602081101561007f57600080fd5b810190808035906020019092919050505061019b565b6040518080602001848152602001838152602001828103825285818151815260200191508051906020019080838360005b838110156100e15780820151818401526020810190506100c6565b50505050905090810190601f16801561010e5780820380516001836020036101000a031916815260200191505b5094505050505060405180910390f35b34801561012a57600080fd5b506101576004803603602081101561014157600080fd5b810190808035906020019092919050505061026c565b6040518082815260200191505060405180910390f35b6101996004803603602081101561018357600080fd5b8101908080359060200190929190505050610295565b005b6002818154811015156101aa57fe5b9060005260206000209060030201600091509050806000018054600181600116156101000203166002900480601f0160208091040260200160405190810160405280929190818152602001828054600181600116156101000203166002900480156102565780601f1061022b57610100808354040283529160200191610256565b820191906000526020600020905b81548152906001019060200180831161023957829003601f168201915b5050505050908060010154908060020154905083565b60038181548110151561027b57fe5b906000526020600020016000915090508060000154905081565b61029e816102a1565b50565b60006001600360206040519081016040528085815250908060018154018082558091505090600182039060005260206000200160009091929091909150600082015181600001555050039050336001600083815260200190815260200160002060006101000a81548173ffffffffffffffffffffffffffffffffffffffff021916908373ffffffffffffffffffffffffffffffffffffffff1602179055507f9bd01586839227759b1ae3961fb74c90280f99875d71c0b274c01196d29b0585818333604051808481526020018381526020018273ffffffffffffffffffffffffffffffffffffffff1673ffffffffffffffffffffffffffffffffffffffff168152602001935050505060405180910390a1505056fea165627a7a723058202c84d0a9f9c7678eda4fd06abf828ff7095d7a6ab196ea3b1af99db5e7a195650029",
  "source": "pragma solidity >=0.4.21 <0.6.0;\nimport \"./poChain.sol\";\n\ncontract tx is poChain {\n    constructor() public {\n    }\n    event TxCreated(uint TxId, uint _ProductId, address addr);\n    function _createtx(uint _ProductId) private{\n        uint id = txs.push(Tx(_ProductId)) - 1;\n        Tx2Customer[id] = msg.sender;\n        emit TxCreated(id, _ProductId, msg.sender);\n    }\n\n    function CreateTx(uint _ProductId) public payable {\n\n        //require(msg.value == products[_ProductId]._cost, \"Not enough balance!!\");\n        _createtx(_ProductId);\n        // products[_ProductId]._state -= 1;\n    }\n}",
  "sourcePath": "/Users/karl/Desktop/pochain/contracts/tx.sol",
  "compiler": {
    "name": "solc",
    "version": "0.5.0+commit.1d4f565a.Emscripten.clang"
  },
  "schemaVersion": "3.0.9",
  "updatedAt": "2019-05-28T07:09:12.513Z",
  "devdoc": {
    "methods": {}
  },
  "userdoc": {
    "methods": {}
  }
}